{
  "contractName": "AsifNFT",
  "abi": [
    {
      "inputs": [
        {
          "internalType": "string",
          "name": "_name",
          "type": "string"
        },
        {
          "internalType": "string",
          "name": "_symbol",
          "type": "string"
        },
        {
          "internalType": "uint256",
          "name": "_royalityFee",
          "type": "uint256"
        },
        {
          "internalType": "address",
          "name": "_artist",
          "type": "address"
        }
      ],
      "stateMutability": "nonpayable",
      "type": "constructor"
    },
    {
      "anonymous": false,
      "inputs": [
        {
          "indexed": true,
          "internalType": "address",
          "name": "owner",
          "type": "address"
        },
        {
          "indexed": true,
          "internalType": "address",
          "name": "approved",
          "type": "address"
        },
        {
          "indexed": true,
          "internalType": "uint256",
          "name": "tokenId",
          "type": "uint256"
        }
      ],
      "name": "Approval",
      "type": "event"
    },
    {
      "anonymous": false,
      "inputs": [
        {
          "indexed": true,
          "internalType": "address",
          "name": "owner",
          "type": "address"
        },
        {
          "indexed": true,
          "internalType": "address",
          "name": "operator",
          "type": "address"
        },
        {
          "indexed": false,
          "internalType": "bool",
          "name": "approved",
          "type": "bool"
        }
      ],
      "name": "ApprovalForAll",
      "type": "event"
    },
    {
      "anonymous": false,
      "inputs": [
        {
          "indexed": true,
          "internalType": "address",
          "name": "previousOwner",
          "type": "address"
        },
        {
          "indexed": true,
          "internalType": "address",
          "name": "newOwner",
          "type": "address"
        }
      ],
      "name": "OwnershipTransferred",
      "type": "event"
    },
    {
      "anonymous": false,
      "inputs": [
        {
          "indexed": false,
          "internalType": "uint256",
          "name": "id",
          "type": "uint256"
        },
        {
          "indexed": true,
          "internalType": "address",
          "name": "owner",
          "type": "address"
        },
        {
          "indexed": false,
          "internalType": "uint256",
          "name": "cost",
          "type": "uint256"
        },
        {
          "indexed": false,
          "internalType": "string",
          "name": "metadataURI",
          "type": "string"
        },
        {
          "indexed": false,
          "internalType": "uint256",
          "name": "timestamp",
          "type": "uint256"
        }
      ],
      "name": "Sale",
      "type": "event"
    },
    {
      "anonymous": false,
      "inputs": [
        {
          "indexed": true,
          "internalType": "address",
          "name": "from",
          "type": "address"
        },
        {
          "indexed": true,
          "internalType": "address",
          "name": "to",
          "type": "address"
        },
        {
          "indexed": true,
          "internalType": "uint256",
          "name": "tokenId",
          "type": "uint256"
        }
      ],
      "name": "Transfer",
      "type": "event"
    },
    {
      "inputs": [
        {
          "internalType": "address",
          "name": "to",
          "type": "address"
        },
        {
          "internalType": "uint256",
          "name": "tokenId",
          "type": "uint256"
        }
      ],
      "name": "approve",
      "outputs": [],
      "stateMutability": "nonpayable",
      "type": "function"
    },
    {
      "inputs": [],
      "name": "artist",
      "outputs": [
        {
          "internalType": "address",
          "name": "",
          "type": "address"
        }
      ],
      "stateMutability": "view",
      "type": "function",
      "constant": true
    },
    {
      "inputs": [
        {
          "internalType": "address",
          "name": "owner",
          "type": "address"
        }
      ],
      "name": "balanceOf",
      "outputs": [
        {
          "internalType": "uint256",
          "name": "",
          "type": "uint256"
        }
      ],
      "stateMutability": "view",
      "type": "function",
      "constant": true
    },
    {
      "inputs": [],
      "name": "cost",
      "outputs": [
        {
          "internalType": "uint256",
          "name": "",
          "type": "uint256"
        }
      ],
      "stateMutability": "view",
      "type": "function",
      "constant": true
    },
    {
      "inputs": [
        {
          "internalType": "uint256",
          "name": "tokenId",
          "type": "uint256"
        }
      ],
      "name": "getApproved",
      "outputs": [
        {
          "internalType": "address",
          "name": "",
          "type": "address"
        }
      ],
      "stateMutability": "view",
      "type": "function",
      "constant": true
    },
    {
      "inputs": [
        {
          "internalType": "uint256",
          "name": "",
          "type": "uint256"
        }
      ],
      "name": "holderOf",
      "outputs": [
        {
          "internalType": "address",
          "name": "",
          "type": "address"
        }
      ],
      "stateMutability": "view",
      "type": "function",
      "constant": true
    },
    {
      "inputs": [
        {
          "internalType": "address",
          "name": "owner",
          "type": "address"
        },
        {
          "internalType": "address",
          "name": "operator",
          "type": "address"
        }
      ],
      "name": "isApprovedForAll",
      "outputs": [
        {
          "internalType": "bool",
          "name": "",
          "type": "bool"
        }
      ],
      "stateMutability": "view",
      "type": "function",
      "constant": true
    },
    {
      "inputs": [],
      "name": "name",
      "outputs": [
        {
          "internalType": "string",
          "name": "",
          "type": "string"
        }
      ],
      "stateMutability": "view",
      "type": "function",
      "constant": true
    },
    {
      "inputs": [],
      "name": "owner",
      "outputs": [
        {
          "internalType": "address",
          "name": "",
          "type": "address"
        }
      ],
      "stateMutability": "view",
      "type": "function",
      "constant": true
    },
    {
      "inputs": [
        {
          "internalType": "uint256",
          "name": "tokenId",
          "type": "uint256"
        }
      ],
      "name": "ownerOf",
      "outputs": [
        {
          "internalType": "address",
          "name": "",
          "type": "address"
        }
      ],
      "stateMutability": "view",
      "type": "function",
      "constant": true
    },
    {
      "inputs": [],
      "name": "renounceOwnership",
      "outputs": [],
      "stateMutability": "nonpayable",
      "type": "function"
    },
    {
      "inputs": [],
      "name": "royalityFee",
      "outputs": [
        {
          "internalType": "uint256",
          "name": "",
          "type": "uint256"
        }
      ],
      "stateMutability": "view",
      "type": "function",
      "constant": true
    },
    {
      "inputs": [
        {
          "internalType": "address",
          "name": "from",
          "type": "address"
        },
        {
          "internalType": "address",
          "name": "to",
          "type": "address"
        },
        {
          "internalType": "uint256",
          "name": "tokenId",
          "type": "uint256"
        }
      ],
      "name": "safeTransferFrom",
      "outputs": [],
      "stateMutability": "payable",
      "type": "function",
      "payable": true
    },
    {
      "inputs": [
        {
          "internalType": "address",
          "name": "from",
          "type": "address"
        },
        {
          "internalType": "address",
          "name": "to",
          "type": "address"
        },
        {
          "internalType": "uint256",
          "name": "tokenId",
          "type": "uint256"
        },
        {
          "internalType": "bytes",
          "name": "_data",
          "type": "bytes"
        }
      ],
      "name": "safeTransferFrom",
      "outputs": [],
      "stateMutability": "payable",
      "type": "function",
      "payable": true
    },
    {
      "inputs": [
        {
          "internalType": "address",
          "name": "operator",
          "type": "address"
        },
        {
          "internalType": "bool",
          "name": "approved",
          "type": "bool"
        }
      ],
      "name": "setApprovalForAll",
      "outputs": [],
      "stateMutability": "nonpayable",
      "type": "function"
    },
    {
      "inputs": [],
      "name": "supply",
      "outputs": [
        {
          "internalType": "uint256",
          "name": "",
          "type": "uint256"
        }
      ],
      "stateMutability": "view",
      "type": "function",
      "constant": true
    },
    {
      "inputs": [
        {
          "internalType": "bytes4",
          "name": "interfaceId",
          "type": "bytes4"
        }
      ],
      "name": "supportsInterface",
      "outputs": [
        {
          "internalType": "bool",
          "name": "",
          "type": "bool"
        }
      ],
      "stateMutability": "view",
      "type": "function",
      "constant": true
    },
    {
      "inputs": [],
      "name": "symbol",
      "outputs": [
        {
          "internalType": "string",
          "name": "",
          "type": "string"
        }
      ],
      "stateMutability": "view",
      "type": "function",
      "constant": true
    },
    {
      "inputs": [
        {
          "internalType": "uint256",
          "name": "index",
          "type": "uint256"
        }
      ],
      "name": "tokenByIndex",
      "outputs": [
        {
          "internalType": "uint256",
          "name": "",
          "type": "uint256"
        }
      ],
      "stateMutability": "view",
      "type": "function",
      "constant": true
    },
    {
      "inputs": [
        {
          "internalType": "address",
          "name": "owner",
          "type": "address"
        },
        {
          "internalType": "uint256",
          "name": "index",
          "type": "uint256"
        }
      ],
      "name": "tokenOfOwnerByIndex",
      "outputs": [
        {
          "internalType": "uint256",
          "name": "",
          "type": "uint256"
        }
      ],
      "stateMutability": "view",
      "type": "function",
      "constant": true
    },
    {
      "inputs": [
        {
          "internalType": "uint256",
          "name": "tokenId",
          "type": "uint256"
        }
      ],
      "name": "tokenURI",
      "outputs": [
        {
          "internalType": "string",
          "name": "",
          "type": "string"
        }
      ],
      "stateMutability": "view",
      "type": "function",
      "constant": true
    },
    {
      "inputs": [],
      "name": "totalSupply",
      "outputs": [
        {
          "internalType": "uint256",
          "name": "",
          "type": "uint256"
        }
      ],
      "stateMutability": "view",
      "type": "function",
      "constant": true
    },
    {
      "inputs": [],
      "name": "totalTx",
      "outputs": [
        {
          "internalType": "uint256",
          "name": "",
          "type": "uint256"
        }
      ],
      "stateMutability": "view",
      "type": "function",
      "constant": true
    },
    {
      "inputs": [
        {
          "internalType": "address",
          "name": "from",
          "type": "address"
        },
        {
          "internalType": "address",
          "name": "to",
          "type": "address"
        },
        {
          "internalType": "uint256",
          "name": "tokenId",
          "type": "uint256"
        }
      ],
      "name": "transferFrom",
      "outputs": [],
      "stateMutability": "payable",
      "type": "function",
      "payable": true
    },
    {
      "inputs": [
        {
          "internalType": "address",
          "name": "newOwner",
          "type": "address"
        }
      ],
      "name": "transferOwnership",
      "outputs": [],
      "stateMutability": "nonpayable",
      "type": "function"
    },
    {
      "inputs": [
        {
          "internalType": "string",
          "name": "title",
          "type": "string"
        },
        {
          "internalType": "string",
          "name": "description",
          "type": "string"
        },
        {
          "internalType": "string",
          "name": "metadataURI",
          "type": "string"
        },
        {
          "internalType": "uint256",
          "name": "salesPrice",
          "type": "uint256"
        }
      ],
      "name": "payToMint",
      "outputs": [],
      "stateMutability": "payable",
      "type": "function",
      "payable": true
    },
    {
      "inputs": [
        {
          "internalType": "uint256",
          "name": "id",
          "type": "uint256"
        }
      ],
      "name": "payToBuy",
      "outputs": [],
      "stateMutability": "payable",
      "type": "function",
      "payable": true
    },
    {
      "inputs": [
        {
          "internalType": "uint256",
          "name": "id",
          "type": "uint256"
        },
        {
          "internalType": "uint256",
          "name": "newPrice",
          "type": "uint256"
        }
      ],
      "name": "changePrice",
      "outputs": [
        {
          "internalType": "bool",
          "name": "",
          "type": "bool"
        }
      ],
      "stateMutability": "nonpayable",
      "type": "function"
    },
    {
      "inputs": [],
      "name": "getAllNFTs",
      "outputs": [
        {
          "components": [
            {
              "internalType": "uint256",
              "name": "id",
              "type": "uint256"
            },
            {
              "internalType": "address",
              "name": "owner",
              "type": "address"
            },
            {
              "internalType": "uint256",
              "name": "cost",
              "type": "uint256"
            },
            {
              "internalType": "string",
              "name": "title",
              "type": "string"
            },
            {
              "internalType": "string",
              "name": "description",
              "type": "string"
            },
            {
              "internalType": "string",
              "name": "metadataURI",
              "type": "string"
            },
            {
              "internalType": "uint256",
              "name": "timestamp",
              "type": "uint256"
            }
          ],
          "internalType": "struct AsifNFT.TransactionStruct[]",
          "name": "",
          "type": "tuple[]"
        }
      ],
      "stateMutability": "view",
      "type": "function",
      "constant": true
    },
    {
      "inputs": [
        {
          "internalType": "uint256",
          "name": "id",
          "type": "uint256"
        }
      ],
      "name": "getNFT",
      "outputs": [
        {
          "components": [
            {
              "internalType": "uint256",
              "name": "id",
              "type": "uint256"
            },
            {
              "internalType": "address",
              "name": "owner",
              "type": "address"
            },
            {
              "internalType": "uint256",
              "name": "cost",
              "type": "uint256"
            },
            {
              "internalType": "string",
              "name": "title",
              "type": "string"
            },
            {
              "internalType": "string",
              "name": "description",
              "type": "string"
            },
            {
              "internalType": "string",
              "name": "metadataURI",
              "type": "string"
            },
            {
              "internalType": "uint256",
              "name": "timestamp",
              "type": "uint256"
            }
          ],
          "internalType": "struct AsifNFT.TransactionStruct",
          "name": "",
          "type": "tuple"
        }
      ],
      "stateMutability": "view",
      "type": "function",
      "constant": true
    },
    {
      "inputs": [],
      "name": "getAllTransactions",
      "outputs": [
        {
          "components": [
            {
              "internalType": "uint256",
              "name": "id",
              "type": "uint256"
            },
            {
              "internalType": "address",
              "name": "owner",
              "type": "address"
            },
            {
              "internalType": "uint256",
              "name": "cost",
              "type": "uint256"
            },
            {
              "internalType": "string",
              "name": "title",
              "type": "string"
            },
            {
              "internalType": "string",
              "name": "description",
              "type": "string"
            },
            {
              "internalType": "string",
              "name": "metadataURI",
              "type": "string"
            },
            {
              "internalType": "uint256",
              "name": "timestamp",
              "type": "uint256"
            }
          ],
          "internalType": "struct AsifNFT.TransactionStruct[]",
          "name": "",
          "type": "tuple[]"
        }
      ],
      "stateMutability": "view",
      "type": "function",
      "constant": true
    }
  ],
  "bytecode": "0x60806040525f600f555f601055662386f26fc1000060115534801562000023575f80fd5b50604051620059e0380380620059e08339818101604052810190620000499190620003c9565b8383815f90816200005b9190620006a4565b5080600190816200006d9190620006a4565b5050506200009062000084620000e160201b60201c565b620000e860201b60201c565b81600e8190555080600d5f6101000a81548173ffffffffffffffffffffffffffffffffffffffff021916908373ffffffffffffffffffffffffffffffffffffffff1602179055505050505062000788565b5f33905090565b5f600a5f9054906101000a900473ffffffffffffffffffffffffffffffffffffffff16905081600a5f6101000a81548173ffffffffffffffffffffffffffffffffffffffff021916908373ffffffffffffffffffffffffffffffffffffffff1602179055508173ffffffffffffffffffffffffffffffffffffffff168173ffffffffffffffffffffffffffffffffffffffff167f8be0079c531659141344cd1fd0a4f28419497f9722a3daafe3b4186f6b6457e060405160405180910390a35050565b5f604051905090565b5f80fd5b5f80fd5b5f80fd5b5f80fd5b5f601f19601f8301169050919050565b7f4e487b71000000000000000000000000000000000000000000000000000000005f52604160045260245ffd5b6200020c82620001c4565b810181811067ffffffffffffffff821117156200022e576200022d620001d4565b5b80604052505050565b5f62000242620001ab565b905062000250828262000201565b919050565b5f67ffffffffffffffff821115620002725762000271620001d4565b5b6200027d82620001c4565b9050602081019050919050565b5f5b83811015620002a95780820151818401526020810190506200028c565b5f8484015250505050565b5f620002ca620002c48462000255565b62000237565b905082815260208101848484011115620002e957620002e8620001c0565b5b620002f68482856200028a565b509392505050565b5f82601f830112620003155762000314620001bc565b5b815162000327848260208601620002b4565b91505092915050565b5f819050919050565b620003448162000330565b81146200034f575f80fd5b50565b5f81519050620003628162000339565b92915050565b5f73ffffffffffffffffffffffffffffffffffffffff82169050919050565b5f620003938262000368565b9050919050565b620003a58162000387565b8114620003b0575f80fd5b50565b5f81519050620003c3816200039a565b92915050565b5f805f8060808587031215620003e457620003e3620001b4565b5b5f85015167ffffffffffffffff811115620004045762000403620001b8565b5b6200041287828801620002fe565b945050602085015167ffffffffffffffff811115620004365762000435620001b8565b5b6200044487828801620002fe565b9350506040620004578782880162000352565b92505060606200046a87828801620003b3565b91505092959194509250565b5f81519050919050565b7f4e487b71000000000000000000000000000000000000000000000000000000005f52602260045260245ffd5b5f6002820490506001821680620004c557607f821691505b602082108103620004db57620004da62000480565b5b50919050565b5f819050815f5260205f209050919050565b5f6020601f8301049050919050565b5f82821b905092915050565b5f600883026200053f7fffffffffffffffffffffffffffffffffffffffffffffffffffffffffffffffff8262000502565b6200054b868362000502565b95508019841693508086168417925050509392505050565b5f819050919050565b5f6200058c62000586620005808462000330565b62000563565b62000330565b9050919050565b5f819050919050565b620005a7836200056c565b620005bf620005b68262000593565b8484546200050e565b825550505050565b5f90565b620005d5620005c7565b620005e28184846200059c565b505050565b5b818110156200060957620005fd5f82620005cb565b600181019050620005e8565b5050565b601f82111562000658576200062281620004e1565b6200062d84620004f3565b810160208510156200063d578190505b620006556200064c85620004f3565b830182620005e7565b50505b505050565b5f82821c905092915050565b5f6200067a5f19846008026200065d565b1980831691505092915050565b5f62000694838362000669565b9150826002028217905092915050565b620006af8262000476565b67ffffffffffffffff811115620006cb57620006ca620001d4565b5b620006d78254620004ad565b620006e48282856200060d565b5f60209050601f8311600181146200071a575f841562000705578287015190505b62000711858262000687565b86555062000780565b601f1984166200072a86620004e1565b5f5b8281101562000753578489015182556001820191506020850194506020810190506200072c565b868310156200077357848901516200076f601f89168262000669565b8355505b6001600288020188555050505b505050505050565b61524a80620007965f395ff3fe6080604052600436106101d7575f3560e01c80636352211e11610101578063a22cb46511610094578063dbacc23711610063578063dbacc2371461068d578063e0391b09146106c9578063e985e9c5146106f3578063f2fde38b1461072f576101d7565b8063a22cb465146105d1578063b3de019c146105f9578063b88d4fde14610635578063c87b56dd14610651576101d7565b8063799c0c1e116100d0578063799c0c1e146105455780638da5cb5b1461056157806395d89b411461058b5780639ba4b017146105b5576101d7565b80636352211e1461048d57806370a08231146104c9578063715018a6146105055780637220cf391461051b576101d7565b806323b872dd1161017957806342842e0e1161014857806342842e0e146103cf57806343bc1612146103eb5780634f6ccce714610415578063576f7ea714610451576101d7565b806323b872dd1461032357806327506f531461033f5780632f745c5914610369578063326bb4ad146103a5576101d7565b8063081812fc116101b5578063081812fc1461026b578063095ea7b3146102a757806313faede6146102cf57806318160ddd146102f9576101d7565b806301ffc9a7146101db578063047fc9aa1461021757806306fdde0314610241575b5f80fd5b3480156101e6575f80fd5b5061020160048036038101906101fc919061360b565b610757565b60405161020e9190613650565b60405180910390f35b348015610222575f80fd5b5061022b6107d0565b6040516102389190613681565b60405180910390f35b34801561024c575f80fd5b506102556107d6565b6040516102629190613724565b60405180910390f35b348015610276575f80fd5b50610291600480360381019061028c919061376e565b610865565b60405161029e91906137d8565b60405180910390f35b3480156102b2575f80fd5b506102cd60048036038101906102c8919061381b565b6108e6565b005b3480156102da575f80fd5b506102e36109fc565b6040516102f09190613681565b60405180910390f35b348015610304575f80fd5b5061030d610a02565b60405161031a9190613681565b60405180910390f35b61033d60048036038101906103389190613859565b610a0e565b005b34801561034a575f80fd5b50610353610a6e565b6040516103609190613a71565b60405180910390f35b348015610374575f80fd5b5061038f600480360381019061038a919061381b565b610cec565b60405161039c9190613681565b60405180910390f35b3480156103b0575f80fd5b506103b9610d8c565b6040516103c69190613681565b60405180910390f35b6103e960048036038101906103e49190613859565b610d92565b005b3480156103f6575f80fd5b506103ff610db1565b60405161040c91906137d8565b60405180910390f35b348015610420575f80fd5b5061043b6004803603810190610436919061376e565b610dd6565b6040516104489190613681565b60405180910390f35b34801561045c575f80fd5b506104776004803603810190610472919061376e565b610e44565b6040516104849190613b38565b60405180910390f35b348015610498575f80fd5b506104b360048036038101906104ae919061376e565b6110ac565b6040516104c091906137d8565b60405180910390f35b3480156104d4575f80fd5b506104ef60048036038101906104ea9190613b58565b611158565b6040516104fc9190613681565b60405180910390f35b348015610510575f80fd5b5061051961120c565b005b348015610526575f80fd5b5061052f61121f565b60405161053c9190613681565b60405180910390f35b61055f600480360381019061055a9190613caf565b611225565b005b34801561056c575f80fd5b5061057561155e565b60405161058291906137d8565b60405180910390f35b348015610596575f80fd5b5061059f611586565b6040516105ac9190613724565b60405180910390f35b6105cf60048036038101906105ca919061376e565b611616565b005b3480156105dc575f80fd5b506105f760048036038101906105f29190613d91565b611c33565b005b348015610604575f80fd5b5061061f600480360381019061061a9190613dcf565b611c49565b60405161062c9190613650565b60405180910390f35b61064f600480360381019061064a9190613eab565b611d86565b005b34801561065c575f80fd5b506106776004803603810190610672919061376e565b611de8565b6040516106849190613724565b60405180910390f35b348015610698575f80fd5b506106b360048036038101906106ae919061376e565b611e8c565b6040516106c091906137d8565b60405180910390f35b3480156106d4575f80fd5b506106dd611ebc565b6040516106ea9190613a71565b60405180910390f35b3480156106fe575f80fd5b5061071960048036038101906107149190613f2b565b61213a565b6040516107269190613650565b60405180910390f35b34801561073a575f80fd5b5061075560048036038101906107509190613b58565b6121c8565b005b5f7f780e9d63000000000000000000000000000000000000000000000000000000007bffffffffffffffffffffffffffffffffffffffffffffffffffffffff1916827bffffffffffffffffffffffffffffffffffffffffffffffffffffffff191614806107c957506107c88261224a565b5b9050919050565b600f5481565b60605f80546107e490613f96565b80601f016020809104026020016040519081016040528092919081815260200182805461081090613f96565b801561085b5780601f106108325761010080835404028352916020019161085b565b820191905f5260205f20905b81548152906001019060200180831161083e57829003601f168201915b5050505050905090565b5f61086f8261232b565b6108ae576040517f08c379a00000000000000000000000000000000000000000000000000000000081526004016108a590614036565b60405180910390fd5b60045f8381526020019081526020015f205f9054906101000a900473ffffffffffffffffffffffffffffffffffffffff169050919050565b5f6108f0826110ac565b90508073ffffffffffffffffffffffffffffffffffffffff168373ffffffffffffffffffffffffffffffffffffffff1603610960576040517f08c379a0000000000000000000000000000000000000000000000000000000008152600401610957906140c4565b60405180910390fd5b8073ffffffffffffffffffffffffffffffffffffffff1661097f612393565b73ffffffffffffffffffffffffffffffffffffffff1614806109ae57506109ad816109a8612393565b61213a565b5b6109ed576040517f08c379a00000000000000000000000000000000000000000000000000000000081526004016109e490614152565b60405180910390fd5b6109f7838361239a565b505050565b60115481565b5f600880549050905090565b610a1f610a19612393565b82612450565b610a5e576040517f08c379a0000000000000000000000000000000000000000000000000000000008152600401610a55906141e0565b60405180910390fd5b610a6983838361252c565b505050565b60606012805480602002602001604051908101604052809291908181526020015f905b82821015610ce3578382905f5260205f2090600702016040518060e00160405290815f8201548152602001600182015f9054906101000a900473ffffffffffffffffffffffffffffffffffffffff1673ffffffffffffffffffffffffffffffffffffffff1673ffffffffffffffffffffffffffffffffffffffff16815260200160028201548152602001600382018054610b2a90613f96565b80601f0160208091040260200160405190810160405280929190818152602001828054610b5690613f96565b8015610ba15780601f10610b7857610100808354040283529160200191610ba1565b820191905f5260205f20905b815481529060010190602001808311610b8457829003601f168201915b50505050508152602001600482018054610bba90613f96565b80601f0160208091040260200160405190810160405280929190818152602001828054610be690613f96565b8015610c315780601f10610c0857610100808354040283529160200191610c31565b820191905f5260205f20905b815481529060010190602001808311610c1457829003601f168201915b50505050508152602001600582018054610c4a90613f96565b80601f0160208091040260200160405190810160405280929190818152602001828054610c7690613f96565b8015610cc15780601f10610c9857610100808354040283529160200191610cc1565b820191905f5260205f20905b815481529060010190602001808311610ca457829003601f168201915b5050505050815260200160068201548152505081526020019060010190610a91565b50505050905090565b5f610cf683611158565b8210610d37576040517f08c379a0000000000000000000000000000000000000000000000000000000008152600401610d2e9061426e565b60405180910390fd5b60065f8473ffffffffffffffffffffffffffffffffffffffff1673ffffffffffffffffffffffffffffffffffffffff1681526020019081526020015f205f8381526020019081526020015f2054905092915050565b600e5481565b610dac83838360405180602001604052805f815250611d86565b505050565b600d5f9054906101000a900473ffffffffffffffffffffffffffffffffffffffff1681565b5f610ddf610a02565b8210610e20576040517f08c379a0000000000000000000000000000000000000000000000000000000008152600401610e17906142fc565b60405180910390fd5b60088281548110610e3457610e3361431a565b5b905f5260205f2001549050919050565b610e4c613556565b6013600183610e5b9190614374565b81548110610e6c57610e6b61431a565b5b905f5260205f2090600702016040518060e00160405290815f8201548152602001600182015f9054906101000a900473ffffffffffffffffffffffffffffffffffffffff1673ffffffffffffffffffffffffffffffffffffffff1673ffffffffffffffffffffffffffffffffffffffff16815260200160028201548152602001600382018054610efb90613f96565b80601f0160208091040260200160405190810160405280929190818152602001828054610f2790613f96565b8015610f725780601f10610f4957610100808354040283529160200191610f72565b820191905f5260205f20905b815481529060010190602001808311610f5557829003601f168201915b50505050508152602001600482018054610f8b90613f96565b80601f0160208091040260200160405190810160405280929190818152602001828054610fb790613f96565b80156110025780601f10610fd957610100808354040283529160200191611002565b820191905f5260205f20905b815481529060010190602001808311610fe557829003601f168201915b5050505050815260200160058201805461101b90613f96565b80601f016020809104026020016040519081016040528092919081815260200182805461104790613f96565b80156110925780601f1061106957610100808354040283529160200191611092565b820191905f5260205f20905b81548152906001019060200180831161107557829003601f168201915b505050505081526020016006820154815250509050919050565b5f8060025f8481526020019081526020015f205f9054906101000a900473ffffffffffffffffffffffffffffffffffffffff1690505f73ffffffffffffffffffffffffffffffffffffffff168173ffffffffffffffffffffffffffffffffffffffff160361114f576040517f08c379a000000000000000000000000000000000000000000000000000000000815260040161114690614417565b60405180910390fd5b80915050919050565b5f8073ffffffffffffffffffffffffffffffffffffffff168273ffffffffffffffffffffffffffffffffffffffff16036111c7576040517f08c379a00000000000000000000000000000000000000000000000000000000081526004016111be906144a5565b60405180910390fd5b60035f8373ffffffffffffffffffffffffffffffffffffffff1673ffffffffffffffffffffffffffffffffffffffff1681526020019081526020015f20549050919050565b61121461277c565b61121d5f6127fa565b565b60105481565b60115434101561126a576040517f08c379a00000000000000000000000000000000000000000000000000000000081526004016112619061450d565b60405180910390fd5b5f600b8360405161127b9190614565565b90815260200160405180910390205f9054906101000a900460ff1660ff16146112d9576040517f08c379a00000000000000000000000000000000000000000000000000000000081526004016112d0906145c5565b60405180910390fd5b5f6064600e54346112ea91906145e3565b6112f49190614651565b9050611321600d5f9054906101000a900473ffffffffffffffffffffffffffffffffffffffff16826128bd565b61133d61132c61155e565b82346113389190614374565b6128bd565b600f5f81548092919061134f90614681565b919050555060136040518060e00160405280600f5481526020013373ffffffffffffffffffffffffffffffffffffffff16815260200184815260200187815260200186815260200185815260200142815250908060018154018082558091505060019003905f5260205f2090600702015f909190919091505f820151815f01556020820151816001015f6101000a81548173ffffffffffffffffffffffffffffffffffffffff021916908373ffffffffffffffffffffffffffffffffffffffff1602179055506040820151816002015560608201518160030190816114349190614865565b50608082015181600401908161144a9190614865565b5060a08201518160050190816114609190614865565b5060c0820151816006015550503373ffffffffffffffffffffffffffffffffffffffff167fb9508407a6eccb191d8da3286f4173697cf95604e9ea192fe5ab7c862b5221f6600f543486426040516114bb9493929190614934565b60405180910390a26114cf33600f54612933565b6001600b846040516114e19190614565565b90815260200160405180910390205f6101000a81548160ff021916908360ff16021790555033600c5f600f5481526020019081526020015f205f6101000a81548173ffffffffffffffffffffffffffffffffffffffff021916908373ffffffffffffffffffffffffffffffffffffffff1602179055505050505050565b5f600a5f9054906101000a900473ffffffffffffffffffffffffffffffffffffffff16905090565b60606001805461159590613f96565b80601f01602080910402602001604051908101604052809291908181526020018280546115c190613f96565b801561160c5780601f106115e35761010080835404028352916020019161160c565b820191905f5260205f20905b8154815290600101906020018083116115ef57829003601f168201915b5050505050905090565b60136001826116259190614374565b815481106116365761163561431a565b5b905f5260205f20906007020160020154341015611688576040517f08c379a000000000000000000000000000000000000000000000000000000000815260040161167f906149c8565b60405180910390fd5b60136001826116979190614374565b815481106116a8576116a761431a565b5b905f5260205f2090600702016001015f9054906101000a900473ffffffffffffffffffffffffffffffffffffffff1673ffffffffffffffffffffffffffffffffffffffff163373ffffffffffffffffffffffffffffffffffffffff1603611744576040517f08c379a000000000000000000000000000000000000000000000000000000000815260040161173b90614a30565b60405180910390fd5b5f6064600e543461175591906145e3565b61175f9190614651565b905061178c600d5f9054906101000a900473ffffffffffffffffffffffffffffffffffffffff16826128bd565b6117ef601360018461179e9190614374565b815481106117af576117ae61431a565b5b905f5260205f2090600702016001015f9054906101000a900473ffffffffffffffffffffffffffffffffffffffff1682346117ea9190614374565b6128bd565b60105f81548092919061180190614681565b919050555060126040518060e0016040528060105481526020013373ffffffffffffffffffffffffffffffffffffffff168152602001348152602001601360018661184c9190614374565b8154811061185d5761185c61431a565b5b905f5260205f209060070201600301805461187790613f96565b80601f01602080910402602001604051908101604052809291908181526020018280546118a390613f96565b80156118ee5780601f106118c5576101008083540402835291602001916118ee565b820191905f5260205f20905b8154815290600101906020018083116118d157829003601f168201915b5050505050815260200160136001866119079190614374565b815481106119185761191761431a565b5b905f5260205f209060070201600401805461193290613f96565b80601f016020809104026020016040519081016040528092919081815260200182805461195e90613f96565b80156119a95780601f10611980576101008083540402835291602001916119a9565b820191905f5260205f20905b81548152906001019060200180831161198c57829003601f168201915b5050505050815260200160136001866119c29190614374565b815481106119d3576119d261431a565b5b905f5260205f20906007020160050180546119ed90613f96565b80601f0160208091040260200160405190810160405280929190818152602001828054611a1990613f96565b8015611a645780601f10611a3b57610100808354040283529160200191611a64565b820191905f5260205f20905b815481529060010190602001808311611a4757829003601f168201915b5050505050815260200142815250908060018154018082558091505060019003905f5260205f2090600702015f909190919091505f820151815f01556020820151816001015f6101000a81548173ffffffffffffffffffffffffffffffffffffffff021916908373ffffffffffffffffffffffffffffffffffffffff160217905550604082015181600201556060820151816003019081611b059190614865565b506080820151816004019081611b1b9190614865565b5060a0820151816005019081611b319190614865565b5060c0820151816006015550503373ffffffffffffffffffffffffffffffffffffffff167fb9508407a6eccb191d8da3286f4173697cf95604e9ea192fe5ab7c862b5221f6601054346013600187611b899190614374565b81548110611b9a57611b9961431a565b5b905f5260205f20906007020160050142604051611bba9493929190614acf565b60405180910390a2336013600184611bd29190614374565b81548110611be357611be261431a565b5b905f5260205f2090600702016001015f6101000a81548173ffffffffffffffffffffffffffffffffffffffff021916908373ffffffffffffffffffffffffffffffffffffffff1602179055505050565b611c45611c3e612393565b8383612950565b5050565b5f808211611c8c576040517f08c379a0000000000000000000000000000000000000000000000000000000008152600401611c8390614b63565b60405180910390fd5b6013600184611c9b9190614374565b81548110611cac57611cab61431a565b5b905f5260205f2090600702016001015f9054906101000a900473ffffffffffffffffffffffffffffffffffffffff1673ffffffffffffffffffffffffffffffffffffffff163373ffffffffffffffffffffffffffffffffffffffff1614611d48576040517f08c379a0000000000000000000000000000000000000000000000000000000008152600401611d3f90614a30565b60405180910390fd5b816013600185611d589190614374565b81548110611d6957611d6861431a565b5b905f5260205f209060070201600201819055506001905092915050565b611d97611d91612393565b83612450565b611dd6576040517f08c379a0000000000000000000000000000000000000000000000000000000008152600401611dcd906141e0565b60405180910390fd5b611de284848484612ab7565b50505050565b6060611df38261232b565b611e32576040517f08c379a0000000000000000000000000000000000000000000000000000000008152600401611e2990614bf1565b60405180910390fd5b5f611e3b612b13565b90505f815111611e595760405180602001604052805f815250611e84565b80611e6384612b29565b604051602001611e74929190614c0f565b6040516020818303038152906040525b915050919050565b600c602052805f5260405f205f915054906101000a900473ffffffffffffffffffffffffffffffffffffffff1681565b60606013805480602002602001604051908101604052809291908181526020015f905b82821015612131578382905f5260205f2090600702016040518060e00160405290815f8201548152602001600182015f9054906101000a900473ffffffffffffffffffffffffffffffffffffffff1673ffffffffffffffffffffffffffffffffffffffff1673ffffffffffffffffffffffffffffffffffffffff16815260200160028201548152602001600382018054611f7890613f96565b80601f0160208091040260200160405190810160405280929190818152602001828054611fa490613f96565b8015611fef5780601f10611fc657610100808354040283529160200191611fef565b820191905f5260205f20905b815481529060010190602001808311611fd257829003601f168201915b5050505050815260200160048201805461200890613f96565b80601f016020809104026020016040519081016040528092919081815260200182805461203490613f96565b801561207f5780601f106120565761010080835404028352916020019161207f565b820191905f5260205f20905b81548152906001019060200180831161206257829003601f168201915b5050505050815260200160058201805461209890613f96565b80601f01602080910402602001604051908101604052809291908181526020018280546120c490613f96565b801561210f5780601f106120e65761010080835404028352916020019161210f565b820191905f5260205f20905b8154815290600101906020018083116120f257829003601f168201915b5050505050815260200160068201548152505081526020019060010190611edf565b50505050905090565b5f60055f8473ffffffffffffffffffffffffffffffffffffffff1673ffffffffffffffffffffffffffffffffffffffff1681526020019081526020015f205f8373ffffffffffffffffffffffffffffffffffffffff1673ffffffffffffffffffffffffffffffffffffffff1681526020019081526020015f205f9054906101000a900460ff16905092915050565b6121d061277c565b5f73ffffffffffffffffffffffffffffffffffffffff168173ffffffffffffffffffffffffffffffffffffffff160361223e576040517f08c379a000000000000000000000000000000000000000000000000000000000815260040161223590614ca2565b60405180910390fd5b612247816127fa565b50565b5f7f80ac58cd000000000000000000000000000000000000000000000000000000007bffffffffffffffffffffffffffffffffffffffffffffffffffffffff1916827bffffffffffffffffffffffffffffffffffffffffffffffffffffffff1916148061231457507f5b5e139f000000000000000000000000000000000000000000000000000000007bffffffffffffffffffffffffffffffffffffffffffffffffffffffff1916827bffffffffffffffffffffffffffffffffffffffffffffffffffffffff1916145b80612324575061232382612bf3565b5b9050919050565b5f8073ffffffffffffffffffffffffffffffffffffffff1660025f8481526020019081526020015f205f9054906101000a900473ffffffffffffffffffffffffffffffffffffffff1673ffffffffffffffffffffffffffffffffffffffff1614159050919050565b5f33905090565b8160045f8381526020019081526020015f205f6101000a81548173ffffffffffffffffffffffffffffffffffffffff021916908373ffffffffffffffffffffffffffffffffffffffff160217905550808273ffffffffffffffffffffffffffffffffffffffff1661240a836110ac565b73ffffffffffffffffffffffffffffffffffffffff167f8c5be1e5ebec7d5bd14f71427d1e84f3dd0314c0f7b2291e5b200ac8c7c3b92560405160405180910390a45050565b5f61245a8261232b565b612499576040517f08c379a000000000000000000000000000000000000000000000000000000000815260040161249090614d30565b60405180910390fd5b5f6124a3836110ac565b90508073ffffffffffffffffffffffffffffffffffffffff168473ffffffffffffffffffffffffffffffffffffffff16148061251257508373ffffffffffffffffffffffffffffffffffffffff166124fa84610865565b73ffffffffffffffffffffffffffffffffffffffff16145b806125235750612522818561213a565b5b91505092915050565b8273ffffffffffffffffffffffffffffffffffffffff1661254c826110ac565b73ffffffffffffffffffffffffffffffffffffffff16146125a2576040517f08c379a000000000000000000000000000000000000000000000000000000000815260040161259990614dbe565b60405180910390fd5b5f73ffffffffffffffffffffffffffffffffffffffff168273ffffffffffffffffffffffffffffffffffffffff1603612610576040517f08c379a000000000000000000000000000000000000000000000000000000000815260040161260790614e4c565b60405180910390fd5b61261b838383612c5c565b6126255f8261239a565b600160035f8573ffffffffffffffffffffffffffffffffffffffff1673ffffffffffffffffffffffffffffffffffffffff1681526020019081526020015f205f8282546126729190614374565b92505081905550600160035f8473ffffffffffffffffffffffffffffffffffffffff1673ffffffffffffffffffffffffffffffffffffffff1681526020019081526020015f205f8282546126c69190614e6a565b925050819055508160025f8381526020019081526020015f205f6101000a81548173ffffffffffffffffffffffffffffffffffffffff021916908373ffffffffffffffffffffffffffffffffffffffff160217905550808273ffffffffffffffffffffffffffffffffffffffff168473ffffffffffffffffffffffffffffffffffffffff167fddf252ad1be2c89b69c2b068fc378daa952ba7f163c4a11628f55a4df523b3ef60405160405180910390a4505050565b612784612393565b73ffffffffffffffffffffffffffffffffffffffff166127a261155e565b73ffffffffffffffffffffffffffffffffffffffff16146127f8576040517f08c379a00000000000000000000000000000000000000000000000000000000081526004016127ef90614ee7565b60405180910390fd5b565b5f600a5f9054906101000a900473ffffffffffffffffffffffffffffffffffffffff16905081600a5f6101000a81548173ffffffffffffffffffffffffffffffffffffffff021916908373ffffffffffffffffffffffffffffffffffffffff1602179055508173ffffffffffffffffffffffffffffffffffffffff168173ffffffffffffffffffffffffffffffffffffffff167f8be0079c531659141344cd1fd0a4f28419497f9722a3daafe3b4186f6b6457e060405160405180910390a35050565b5f8273ffffffffffffffffffffffffffffffffffffffff16826040516128e290614f32565b5f6040518083038185875af1925050503d805f811461291c576040519150601f19603f3d011682016040523d82523d5f602084013e612921565b606091505b505090508061292e575f80fd5b505050565b61294c828260405180602001604052805f815250612d6c565b5050565b8173ffffffffffffffffffffffffffffffffffffffff168373ffffffffffffffffffffffffffffffffffffffff16036129be576040517f08c379a00000000000000000000000000000000000000000000000000000000081526004016129b590614f90565b60405180910390fd5b8060055f8573ffffffffffffffffffffffffffffffffffffffff1673ffffffffffffffffffffffffffffffffffffffff1681526020019081526020015f205f8473ffffffffffffffffffffffffffffffffffffffff1673ffffffffffffffffffffffffffffffffffffffff1681526020019081526020015f205f6101000a81548160ff0219169083151502179055508173ffffffffffffffffffffffffffffffffffffffff168373ffffffffffffffffffffffffffffffffffffffff167f17307eab39ab6107e8899845ad3d59bd9653f200f220920489ca2b5937696c3183604051612aaa9190613650565b60405180910390a3505050565b612ac284848461252c565b612ace84848484612dc6565b612b0d576040517f08c379a0000000000000000000000000000000000000000000000000000000008152600401612b049061501e565b60405180910390fd5b50505050565b606060405180602001604052805f815250905090565b60605f6001612b3784612f48565b0190505f8167ffffffffffffffff811115612b5557612b54613b8b565b5b6040519080825280601f01601f191660200182016040528015612b875781602001600182028036833780820191505090505b5090505f82602001820190505b600115612be8578080600190039150507f3031323334353637383961626364656600000000000000000000000000000000600a86061a8153600a8581612bdd57612bdc614624565b5b0494505f8503612b94575b819350505050919050565b5f7f01ffc9a7000000000000000000000000000000000000000000000000000000007bffffffffffffffffffffffffffffffffffffffffffffffffffffffff1916827bffffffffffffffffffffffffffffffffffffffffffffffffffffffff1916149050919050565b612c67838383613099565b5f73ffffffffffffffffffffffffffffffffffffffff168373ffffffffffffffffffffffffffffffffffffffff1603612ca857612ca38161309e565b612ce7565b8173ffffffffffffffffffffffffffffffffffffffff168373ffffffffffffffffffffffffffffffffffffffff1614612ce657612ce583826130e2565b5b5b5f73ffffffffffffffffffffffffffffffffffffffff168273ffffffffffffffffffffffffffffffffffffffff1603612d2857612d2381613238565b612d67565b8273ffffffffffffffffffffffffffffffffffffffff168273ffffffffffffffffffffffffffffffffffffffff1614612d6657612d6582826132f8565b5b5b505050565b612d768383613370565b612d825f848484612dc6565b612dc1576040517f08c379a0000000000000000000000000000000000000000000000000000000008152600401612db89061501e565b60405180910390fd5b505050565b5f612de68473ffffffffffffffffffffffffffffffffffffffff16613534565b15612f3b578373ffffffffffffffffffffffffffffffffffffffff1663150b7a02612e0f612393565b8786866040518563ffffffff1660e01b8152600401612e31949392919061508e565b6020604051808303815f875af1925050508015612e6c57506040513d601f19601f82011682018060405250810190612e6991906150ec565b60015b612eeb573d805f8114612e9a576040519150601f19603f3d011682016040523d82523d5f602084013e612e9f565b606091505b505f815103612ee3576040517f08c379a0000000000000000000000000000000000000000000000000000000008152600401612eda9061501e565b60405180910390fd5b805181602001fd5b63150b7a0260e01b7bffffffffffffffffffffffffffffffffffffffffffffffffffffffff1916817bffffffffffffffffffffffffffffffffffffffffffffffffffffffff191614915050612f40565b600190505b949350505050565b5f805f90507a184f03e93ff9f4daa797ed6e38ed64bf6a1f0100000000000000008310612fa4577a184f03e93ff9f4daa797ed6e38ed64bf6a1f0100000000000000008381612f9a57612f99614624565b5b0492506040810190505b6d04ee2d6d415b85acef81000000008310612fe1576d04ee2d6d415b85acef81000000008381612fd757612fd6614624565b5b0492506020810190505b662386f26fc10000831061301057662386f26fc10000838161300657613005614624565b5b0492506010810190505b6305f5e1008310613039576305f5e100838161302f5761302e614624565b5b0492506008810190505b612710831061305e57612710838161305457613053614624565b5b0492506004810190505b60648310613081576064838161307757613076614624565b5b0492506002810190505b600a8310613090576001810190505b80915050919050565b505050565b60088054905060095f8381526020019081526020015f2081905550600881908060018154018082558091505060019003905f5260205f20015f909190919091505550565b5f60016130ee84611158565b6130f89190614374565b90505f60075f8481526020019081526020015f205490508181146131cf575f60065f8673ffffffffffffffffffffffffffffffffffffffff1673ffffffffffffffffffffffffffffffffffffffff1681526020019081526020015f205f8481526020019081526020015f205490508060065f8773ffffffffffffffffffffffffffffffffffffffff1673ffffffffffffffffffffffffffffffffffffffff1681526020019081526020015f205f8481526020019081526020015f20819055508160075f8381526020019081526020015f2081905550505b60075f8481526020019081526020015f205f905560065f8573ffffffffffffffffffffffffffffffffffffffff1673ffffffffffffffffffffffffffffffffffffffff1681526020019081526020015f205f8381526020019081526020015f205f905550505050565b5f600160088054905061324b9190614374565b90505f60095f8481526020019081526020015f205490505f600883815481106132775761327661431a565b5b905f5260205f200154905080600883815481106132975761329661431a565b5b905f5260205f2001819055508160095f8381526020019081526020015f208190555060095f8581526020019081526020015f205f905560088054806132df576132de615117565b5b600190038181905f5260205f20015f9055905550505050565b5f61330283611158565b90508160065f8573ffffffffffffffffffffffffffffffffffffffff1673ffffffffffffffffffffffffffffffffffffffff1681526020019081526020015f205f8381526020019081526020015f20819055508060075f8481526020019081526020015f2081905550505050565b5f73ffffffffffffffffffffffffffffffffffffffff168273ffffffffffffffffffffffffffffffffffffffff16036133de576040517f08c379a00000000000000000000000000000000000000000000000000000000081526004016133d59061518e565b60405180910390fd5b6133e78161232b565b15613427576040517f08c379a000000000000000000000000000000000000000000000000000000000815260040161341e906151f6565b60405180910390fd5b6134325f8383612c5c565b600160035f8473ffffffffffffffffffffffffffffffffffffffff1673ffffffffffffffffffffffffffffffffffffffff1681526020019081526020015f205f82825461347f9190614e6a565b925050819055508160025f8381526020019081526020015f205f6101000a81548173ffffffffffffffffffffffffffffffffffffffff021916908373ffffffffffffffffffffffffffffffffffffffff160217905550808273ffffffffffffffffffffffffffffffffffffffff165f73ffffffffffffffffffffffffffffffffffffffff167fddf252ad1be2c89b69c2b068fc378daa952ba7f163c4a11628f55a4df523b3ef60405160405180910390a45050565b5f808273ffffffffffffffffffffffffffffffffffffffff163b119050919050565b6040518060e001604052805f81526020015f73ffffffffffffffffffffffffffffffffffffffff1681526020015f81526020016060815260200160608152602001606081526020015f81525090565b5f604051905090565b5f80fd5b5f80fd5b5f7fffffffff0000000000000000000000000000000000000000000000000000000082169050919050565b6135ea816135b6565b81146135f4575f80fd5b50565b5f81359050613605816135e1565b92915050565b5f602082840312156136205761361f6135ae565b5b5f61362d848285016135f7565b91505092915050565b5f8115159050919050565b61364a81613636565b82525050565b5f6020820190506136635f830184613641565b92915050565b5f819050919050565b61367b81613669565b82525050565b5f6020820190506136945f830184613672565b92915050565b5f81519050919050565b5f82825260208201905092915050565b5f5b838110156136d15780820151818401526020810190506136b6565b5f8484015250505050565b5f601f19601f8301169050919050565b5f6136f68261369a565b61370081856136a4565b93506137108185602086016136b4565b613719816136dc565b840191505092915050565b5f6020820190508181035f83015261373c81846136ec565b905092915050565b61374d81613669565b8114613757575f80fd5b50565b5f8135905061376881613744565b92915050565b5f60208284031215613783576137826135ae565b5b5f6137908482850161375a565b91505092915050565b5f73ffffffffffffffffffffffffffffffffffffffff82169050919050565b5f6137c282613799565b9050919050565b6137d2816137b8565b82525050565b5f6020820190506137eb5f8301846137c9565b92915050565b6137fa816137b8565b8114613804575f80fd5b50565b5f81359050613815816137f1565b92915050565b5f8060408385031215613831576138306135ae565b5b5f61383e85828601613807565b925050602061384f8582860161375a565b9150509250929050565b5f805f606084860312156138705761386f6135ae565b5b5f61387d86828701613807565b935050602061388e86828701613807565b925050604061389f8682870161375a565b9150509250925092565b5f81519050919050565b5f82825260208201905092915050565b5f819050602082019050919050565b6138db81613669565b82525050565b6138ea816137b8565b82525050565b5f82825260208201905092915050565b5f61390a8261369a565b61391481856138f0565b93506139248185602086016136b4565b61392d816136dc565b840191505092915050565b5f60e083015f83015161394d5f8601826138d2565b50602083015161396060208601826138e1565b50604083015161397360408601826138d2565b506060830151848203606086015261398b8282613900565b915050608083015184820360808601526139a58282613900565b91505060a083015184820360a08601526139bf8282613900565b91505060c08301516139d460c08601826138d2565b508091505092915050565b5f6139ea8383613938565b905092915050565b5f602082019050919050565b5f613a08826138a9565b613a1281856138b3565b935083602082028501613a24856138c3565b805f5b85811015613a5f5784840389528151613a4085826139df565b9450613a4b836139f2565b925060208a01995050600181019050613a27565b50829750879550505050505092915050565b5f6020820190508181035f830152613a8981846139fe565b905092915050565b5f60e083015f830151613aa65f8601826138d2565b506020830151613ab960208601826138e1565b506040830151613acc60408601826138d2565b5060608301518482036060860152613ae48282613900565b91505060808301518482036080860152613afe8282613900565b91505060a083015184820360a0860152613b188282613900565b91505060c0830151613b2d60c08601826138d2565b508091505092915050565b5f6020820190508181035f830152613b508184613a91565b905092915050565b5f60208284031215613b6d57613b6c6135ae565b5b5f613b7a84828501613807565b91505092915050565b5f80fd5b5f80fd5b7f4e487b71000000000000000000000000000000000000000000000000000000005f52604160045260245ffd5b613bc1826136dc565b810181811067ffffffffffffffff82111715613be057613bdf613b8b565b5b80604052505050565b5f613bf26135a5565b9050613bfe8282613bb8565b919050565b5f67ffffffffffffffff821115613c1d57613c1c613b8b565b5b613c26826136dc565b9050602081019050919050565b828183375f83830152505050565b5f613c53613c4e84613c03565b613be9565b905082815260208101848484011115613c6f57613c6e613b87565b5b613c7a848285613c33565b509392505050565b5f82601f830112613c9657613c95613b83565b5b8135613ca6848260208601613c41565b91505092915050565b5f805f8060808587031215613cc757613cc66135ae565b5b5f85013567ffffffffffffffff811115613ce457613ce36135b2565b5b613cf087828801613c82565b945050602085013567ffffffffffffffff811115613d1157613d106135b2565b5b613d1d87828801613c82565b935050604085013567ffffffffffffffff811115613d3e57613d3d6135b2565b5b613d4a87828801613c82565b9250506060613d5b8782880161375a565b91505092959194509250565b613d7081613636565b8114613d7a575f80fd5b50565b5f81359050613d8b81613d67565b92915050565b5f8060408385031215613da757613da66135ae565b5b5f613db485828601613807565b9250506020613dc585828601613d7d565b9150509250929050565b5f8060408385031215613de557613de46135ae565b5b5f613df28582860161375a565b9250506020613e038582860161375a565b9150509250929050565b5f67ffffffffffffffff821115613e2757613e26613b8b565b5b613e30826136dc565b9050602081019050919050565b5f613e4f613e4a84613e0d565b613be9565b905082815260208101848484011115613e6b57613e6a613b87565b5b613e76848285613c33565b509392505050565b5f82601f830112613e9257613e91613b83565b5b8135613ea2848260208601613e3d565b91505092915050565b5f805f8060808587031215613ec357613ec26135ae565b5b5f613ed087828801613807565b9450506020613ee187828801613807565b9350506040613ef28782880161375a565b925050606085013567ffffffffffffffff811115613f1357613f126135b2565b5b613f1f87828801613e7e565b91505092959194509250565b5f8060408385031215613f4157613f406135ae565b5b5f613f4e85828601613807565b9250506020613f5f85828601613807565b9150509250929050565b7f4e487b71000000000000000000000000000000000000000000000000000000005f52602260045260245ffd5b5f6002820490506001821680613fad57607f821691505b602082108103613fc057613fbf613f69565b5b50919050565b7f4552433732313a20617070726f76656420717565727920666f72206e6f6e65785f8201527f697374656e7420746f6b656e0000000000000000000000000000000000000000602082015250565b5f614020602c836136a4565b915061402b82613fc6565b604082019050919050565b5f6020820190508181035f83015261404d81614014565b9050919050565b7f4552433732313a20617070726f76616c20746f2063757272656e74206f776e655f8201527f7200000000000000000000000000000000000000000000000000000000000000602082015250565b5f6140ae6021836136a4565b91506140b982614054565b604082019050919050565b5f6020820190508181035f8301526140db816140a2565b9050919050565b7f4552433732313a20617070726f76652063616c6c6572206973206e6f74206f775f8201527f6e6572206e6f7220617070726f76656420666f7220616c6c0000000000000000602082015250565b5f61413c6038836136a4565b9150614147826140e2565b604082019050919050565b5f6020820190508181035f83015261416981614130565b9050919050565b7f4552433732313a207472616e736665722063616c6c6572206973206e6f74206f5f8201527f776e6572206e6f7220617070726f766564000000000000000000000000000000602082015250565b5f6141ca6031836136a4565b91506141d582614170565b604082019050919050565b5f6020820190508181035f8301526141f7816141be565b9050919050565b7f455243373231456e756d657261626c653a206f776e657220696e646578206f755f8201527f74206f6620626f756e6473000000000000000000000000000000000000000000602082015250565b5f614258602b836136a4565b9150614263826141fe565b604082019050919050565b5f6020820190508181035f8301526142858161424c565b9050919050565b7f455243373231456e756d657261626c653a20676c6f62616c20696e646578206f5f8201527f7574206f6620626f756e64730000000000000000000000000000000000000000602082015250565b5f6142e6602c836136a4565b91506142f18261428c565b604082019050919050565b5f6020820190508181035f830152614313816142da565b9050919050565b7f4e487b71000000000000000000000000000000000000000000000000000000005f52603260045260245ffd5b7f4e487b71000000000000000000000000000000000000000000000000000000005f52601160045260245ffd5b5f61437e82613669565b915061438983613669565b92508282039050818111156143a1576143a0614347565b5b92915050565b7f4552433732313a206f776e657220717565727920666f72206e6f6e65786973745f8201527f656e7420746f6b656e0000000000000000000000000000000000000000000000602082015250565b5f6144016029836136a4565b915061440c826143a7565b604082019050919050565b5f6020820190508181035f83015261442e816143f5565b9050919050565b7f4552433732313a2062616c616e636520717565727920666f7220746865207a655f8201527f726f206164647265737300000000000000000000000000000000000000000000602082015250565b5f61448f602a836136a4565b915061449a82614435565b604082019050919050565b5f6020820190508181035f8301526144bc81614483565b9050919050565b7f457468657220746f6f206c6f7720666f72206d696e74696e67210000000000005f82015250565b5f6144f7601a836136a4565b9150614502826144c3565b602082019050919050565b5f6020820190508181035f830152614524816144eb565b9050919050565b5f81905092915050565b5f61453f8261369a565b614549818561452b565b93506145598185602086016136b4565b80840191505092915050565b5f6145708284614535565b915081905092915050565b7f54686973204e465420697320616c7265616479206d696e7465642100000000005f82015250565b5f6145af601b836136a4565b91506145ba8261457b565b602082019050919050565b5f6020820190508181035f8301526145dc816145a3565b9050919050565b5f6145ed82613669565b91506145f883613669565b925082820261460681613669565b9150828204841483151761461d5761461c614347565b5b5092915050565b7f4e487b71000000000000000000000000000000000000000000000000000000005f52601260045260245ffd5b5f61465b82613669565b915061466683613669565b92508261467657614675614624565b5b828204905092915050565b5f61468b82613669565b91507fffffffffffffffffffffffffffffffffffffffffffffffffffffffffffffffff82036146bd576146bc614347565b5b600182019050919050565b5f819050815f5260205f209050919050565b5f6020601f8301049050919050565b5f82821b905092915050565b5f600883026147247fffffffffffffffffffffffffffffffffffffffffffffffffffffffffffffffff826146e9565b61472e86836146e9565b95508019841693508086168417925050509392505050565b5f819050919050565b5f61476961476461475f84613669565b614746565b613669565b9050919050565b5f819050919050565b6147828361474f565b61479661478e82614770565b8484546146f5565b825550505050565b5f90565b6147aa61479e565b6147b5818484614779565b505050565b5b818110156147d8576147cd5f826147a2565b6001810190506147bb565b5050565b601f82111561481d576147ee816146c8565b6147f7846146da565b81016020851015614806578190505b61481a614812856146da565b8301826147ba565b50505b505050565b5f82821c905092915050565b5f61483d5f1984600802614822565b1980831691505092915050565b5f614855838361482e565b9150826002028217905092915050565b61486e8261369a565b67ffffffffffffffff81111561488757614886613b8b565b5b6148918254613f96565b61489c8282856147dc565b5f60209050601f8311600181146148cd575f84156148bb578287015190505b6148c5858261484a565b86555061492c565b601f1984166148db866146c8565b5f5b82811015614902578489015182556001820191506020850194506020810190506148dd565b8683101561491f578489015161491b601f89168261482e565b8355505b6001600288020188555050505b505050505050565b5f6080820190506149475f830187613672565b6149546020830186613672565b818103604083015261496681856136ec565b90506149756060830184613672565b95945050505050565b7f457468657220746f6f206c6f7720666f722070757263686173652100000000005f82015250565b5f6149b2601b836136a4565b91506149bd8261497e565b602082019050919050565b5f6020820190508181035f8301526149df816149a6565b9050919050565b7f4f7065726174696f6e204e6f7420416c6c6f77656421000000000000000000005f82015250565b5f614a1a6016836136a4565b9150614a25826149e6565b602082019050919050565b5f6020820190508181035f830152614a4781614a0e565b9050919050565b5f8154614a5a81613f96565b614a6481866136a4565b9450600182165f8114614a7e5760018114614a9457614ac6565b60ff198316865281151560200286019350614ac6565b614a9d856146c8565b5f5b83811015614abe57815481890152600182019150602081019050614a9f565b808801955050505b50505092915050565b5f608082019050614ae25f830187613672565b614aef6020830186613672565b8181036040830152614b018185614a4e565b9050614b106060830184613672565b95945050505050565b7f457468657220746f6f206c6f77210000000000000000000000000000000000005f82015250565b5f614b4d600e836136a4565b9150614b5882614b19565b602082019050919050565b5f6020820190508181035f830152614b7a81614b41565b9050919050565b7f4552433732314d657461646174613a2055524920717565727920666f72206e6f5f8201527f6e6578697374656e7420746f6b656e0000000000000000000000000000000000602082015250565b5f614bdb602f836136a4565b9150614be682614b81565b604082019050919050565b5f6020820190508181035f830152614c0881614bcf565b9050919050565b5f614c1a8285614535565b9150614c268284614535565b91508190509392505050565b7f4f776e61626c653a206e6577206f776e657220697320746865207a65726f20615f8201527f6464726573730000000000000000000000000000000000000000000000000000602082015250565b5f614c8c6026836136a4565b9150614c9782614c32565b604082019050919050565b5f6020820190508181035f830152614cb981614c80565b9050919050565b7f4552433732313a206f70657261746f7220717565727920666f72206e6f6e65785f8201527f697374656e7420746f6b656e0000000000000000000000000000000000000000602082015250565b5f614d1a602c836136a4565b9150614d2582614cc0565b604082019050919050565b5f6020820190508181035f830152614d4781614d0e565b9050919050565b7f4552433732313a207472616e73666572206f6620746f6b656e207468617420695f8201527f73206e6f74206f776e0000000000000000000000000000000000000000000000602082015250565b5f614da86029836136a4565b9150614db382614d4e565b604082019050919050565b5f6020820190508181035f830152614dd581614d9c565b9050919050565b7f4552433732313a207472616e7366657220746f20746865207a65726f206164645f8201527f7265737300000000000000000000000000000000000000000000000000000000602082015250565b5f614e366024836136a4565b9150614e4182614ddc565b604082019050919050565b5f6020820190508181035f830152614e6381614e2a565b9050919050565b5f614e7482613669565b9150614e7f83613669565b9250828201905080821115614e9757614e96614347565b5b92915050565b7f4f776e61626c653a2063616c6c6572206973206e6f7420746865206f776e65725f82015250565b5f614ed16020836136a4565b9150614edc82614e9d565b602082019050919050565b5f6020820190508181035f830152614efe81614ec5565b9050919050565b5f81905092915050565b50565b5f614f1d5f83614f05565b9150614f2882614f0f565b5f82019050919050565b5f614f3c82614f12565b9150819050919050565b7f4552433732313a20617070726f766520746f2063616c6c6572000000000000005f82015250565b5f614f7a6019836136a4565b9150614f8582614f46565b602082019050919050565b5f6020820190508181035f830152614fa781614f6e565b9050919050565b7f4552433732313a207472616e7366657220746f206e6f6e2045524337323152655f8201527f63656976657220696d706c656d656e7465720000000000000000000000000000602082015250565b5f6150086032836136a4565b915061501382614fae565b604082019050919050565b5f6020820190508181035f83015261503581614ffc565b9050919050565b5f81519050919050565b5f82825260208201905092915050565b5f6150608261503c565b61506a8185615046565b935061507a8185602086016136b4565b615083816136dc565b840191505092915050565b5f6080820190506150a15f8301876137c9565b6150ae60208301866137c9565b6150bb6040830185613672565b81810360608301526150cd8184615056565b905095945050505050565b5f815190506150e6816135e1565b92915050565b5f60208284031215615101576151006135ae565b5b5f61510e848285016150d8565b91505092915050565b7f4e487b71000000000000000000000000000000000000000000000000000000005f52603160045260245ffd5b7f4552433732313a206d696e7420746f20746865207a65726f20616464726573735f82015250565b5f6151786020836136a4565b915061518382615144565b602082019050919050565b5f6020820190508181035f8301526151a58161516c565b9050919050565b7f4552433732313a20746f6b656e20616c7265616479206d696e746564000000005f82015250565b5f6151e0601c836136a4565b91506151eb826151ac565b602082019050919050565b5f6020820190508181035f83015261520d816151d4565b905091905056fea2646970667358221220ae91c5f497f4c55c47b97e871be7c320563c86a89b92d46b4d255dd30483605764736f6c63430008150033",
  "immutableReferences": {},
  "source": "// SPDX-License-Identifier: MIT\r\npragma solidity >=0.7.0 <0.9.0;\r\n\r\nimport \"./ERC721.sol\";\r\nimport \"./ERC721Enumerable.sol\";\r\nimport \"@openzeppelin/contracts/access/Ownable.sol\";\r\n\r\ncontract AsifNFT is ERC721Enumerable, Ownable {\r\n    using Strings for uint256;\r\n    mapping(string => uint8) existingURIs;\r\n    mapping(uint256 => address) public holderOf;\r\n\r\n    address public artist;\r\n    uint256 public royalityFee;\r\n    uint256 public supply = 0;\r\n    uint256 public totalTx = 0;\r\n    uint256 public cost = 0.01 ether;\r\n\r\n    event Sale(\r\n        uint256 id,\r\n        address indexed owner,\r\n        uint256 cost,\r\n        string metadataURI,\r\n        uint256 timestamp\r\n    );\r\n\r\n    struct TransactionStruct {\r\n        uint256 id;\r\n        address owner;\r\n        uint256 cost;\r\n        string title;\r\n        string description;\r\n        string metadataURI;\r\n        uint256 timestamp;\r\n    }\r\n\r\n    TransactionStruct[] transactions;\r\n    TransactionStruct[] minted;\r\n\r\n    constructor(\r\n        string memory _name,\r\n        string memory _symbol,\r\n        uint256 _royalityFee,\r\n        address _artist\r\n    ) ERC721(_name, _symbol) {\r\n        royalityFee = _royalityFee;\r\n        artist = _artist;\r\n    }\r\n\r\n    function payToMint(\r\n        string memory title,\r\n        string memory description,\r\n        string memory metadataURI,\r\n        uint256 salesPrice\r\n    ) external payable {\r\n        require(msg.value >= cost, \"Ether too low for minting!\");\r\n        require(existingURIs[metadataURI] == 0, \"This NFT is already minted!\");\r\n\r\n        uint256 royality = (msg.value * royalityFee) / 100;\r\n        payTo(artist, royality);\r\n        payTo(owner(), (msg.value - royality));\r\n\r\n        supply++;\r\n\r\n        minted.push(\r\n            TransactionStruct(\r\n                supply,\r\n                msg.sender,\r\n                salesPrice,\r\n                title,\r\n                description,\r\n                metadataURI,\r\n                block.timestamp\r\n            )\r\n        );\r\n\r\n        emit Sale(supply, msg.sender, msg.value, metadataURI, block.timestamp);\r\n\r\n        _safeMint(msg.sender, supply);\r\n        existingURIs[metadataURI] = 1;\r\n        holderOf[supply] = msg.sender;\r\n    }\r\n\r\n    function payToBuy(uint256 id) external payable {\r\n        require(\r\n            msg.value >= minted[id - 1].cost,\r\n            \"Ether too low for purchase!\"\r\n        );\r\n        require(msg.sender != minted[id - 1].owner, \"Operation Not Allowed!\");\r\n\r\n        uint256 royality = (msg.value * royalityFee) / 100;\r\n        payTo(artist, royality);\r\n        payTo(minted[id - 1].owner, (msg.value - royality));\r\n\r\n        totalTx++;\r\n\r\n        transactions.push(\r\n            TransactionStruct(\r\n                totalTx,\r\n                msg.sender,\r\n                msg.value,\r\n                minted[id - 1].title,\r\n                minted[id - 1].description,\r\n                minted[id - 1].metadataURI,\r\n                block.timestamp\r\n            )\r\n        );\r\n\r\n        emit Sale(\r\n            totalTx,\r\n            msg.sender,\r\n            msg.value,\r\n            minted[id - 1].metadataURI,\r\n            block.timestamp\r\n        );\r\n\r\n        minted[id - 1].owner = msg.sender;\r\n    }\r\n\r\n    function changePrice(uint256 id, uint256 newPrice) external returns (bool) {\r\n        require(newPrice > 0 ether, \"Ether too low!\");\r\n        require(msg.sender == minted[id - 1].owner, \"Operation Not Allowed!\");\r\n\r\n        minted[id - 1].cost = newPrice;\r\n        return true;\r\n    }\r\n\r\n    function payTo(address to, uint256 amount) internal {\r\n        (bool success, ) = payable(to).call{value: amount}(\"\");\r\n        require(success);\r\n    }\r\n\r\n    function getAllNFTs() external view returns (TransactionStruct[] memory) {\r\n        return minted;\r\n    }\r\n\r\n    function getNFT(\r\n        uint256 id\r\n    ) external view returns (TransactionStruct memory) {\r\n        return minted[id - 1];\r\n    }\r\n\r\n    function getAllTransactions()\r\n        external\r\n        view\r\n        returns (TransactionStruct[] memory)\r\n    {\r\n        return transactions;\r\n    }\r\n}\r\n",
  "sourcePath": "C:\\Users\\ahmed nabi\\NFT_Marketplace\\src\\contracts\\AsifNFT.sol",
  "compiler": {
    "name": "solc",
    "version": "0.8.21+commit.d9974bed.Emscripten.clang"
  },
  "schemaVersion": "3.4.16",
  "updatedAt": "2023-12-27T01:02:25.980Z",
  "networkType": "ethereum",
  "devdoc": {
    "events": {
      "Approval(address,address,uint256)": {
        "details": "Emitted when `owner` enables `approved` to manage the `tokenId` token."
      },
      "ApprovalForAll(address,address,bool)": {
        "details": "Emitted when `owner` enables or disables (`approved`) `operator` to manage all of its assets."
      },
      "Transfer(address,address,uint256)": {
        "details": "Emitted when `tokenId` token is transferred from `from` to `to`."
      }
    },
    "kind": "dev",
    "methods": {
      "approve(address,uint256)": {
        "details": "See {IERC721-approve}."
      },
      "balanceOf(address)": {
        "details": "See {IERC721-balanceOf}."
      },
      "getApproved(uint256)": {
        "details": "See {IERC721-getApproved}."
      },
      "isApprovedForAll(address,address)": {
        "details": "See {IERC721-isApprovedForAll}."
      },
      "name()": {
        "details": "See {IERC721Metadata-name}."
      },
      "owner()": {
        "details": "Returns the address of the current owner."
      },
      "ownerOf(uint256)": {
        "details": "See {IERC721-ownerOf}."
      },
      "renounceOwnership()": {
        "details": "Leaves the contract without owner. It will not be possible to call `onlyOwner` functions. Can only be called by the current owner. NOTE: Renouncing ownership will leave the contract without an owner, thereby disabling any functionality that is only available to the owner."
      },
      "safeTransferFrom(address,address,uint256)": {
        "details": "See {IERC721-safeTransferFrom}."
      },
      "safeTransferFrom(address,address,uint256,bytes)": {
        "details": "See {IERC721-safeTransferFrom}."
      },
      "setApprovalForAll(address,bool)": {
        "details": "See {IERC721-setApprovalForAll}."
      },
      "supportsInterface(bytes4)": {
        "details": "See {IERC165-supportsInterface}."
      },
      "symbol()": {
        "details": "See {IERC721Metadata-symbol}."
      },
      "tokenByIndex(uint256)": {
        "details": "See {IERC721Enumerable-tokenByIndex}."
      },
      "tokenOfOwnerByIndex(address,uint256)": {
        "details": "See {IERC721Enumerable-tokenOfOwnerByIndex}."
      },
      "tokenURI(uint256)": {
        "details": "See {IERC721Metadata-tokenURI}."
      },
      "totalSupply()": {
        "details": "See {IERC721Enumerable-totalSupply}."
      },
      "transferFrom(address,address,uint256)": {
        "details": "See {IERC721-transferFrom}."
      },
      "transferOwnership(address)": {
        "details": "Transfers ownership of the contract to a new account (`newOwner`). Can only be called by the current owner."
      }
    },
    "version": 1
  },
  "userdoc": {
    "kind": "user",
    "methods": {},
    "version": 1
  }
}