{
  "contractName": "AsifNFT",
  "abi": [
    {
      "inputs": [
        {
          "internalType": "string",
          "name": "_name",
          "type": "string"
        },
        {
          "internalType": "string",
          "name": "_symbol",
          "type": "string"
        },
        {
          "internalType": "uint256",
          "name": "_royalityFee",
          "type": "uint256"
        },
        {
          "internalType": "address",
          "name": "_artist",
          "type": "address"
        }
      ],
      "stateMutability": "nonpayable",
      "type": "constructor"
    },
    {
      "anonymous": false,
      "inputs": [
        {
          "indexed": true,
          "internalType": "address",
          "name": "owner",
          "type": "address"
        },
        {
          "indexed": true,
          "internalType": "address",
          "name": "approved",
          "type": "address"
        },
        {
          "indexed": true,
          "internalType": "uint256",
          "name": "tokenId",
          "type": "uint256"
        }
      ],
      "name": "Approval",
      "type": "event"
    },
    {
      "anonymous": false,
      "inputs": [
        {
          "indexed": true,
          "internalType": "address",
          "name": "owner",
          "type": "address"
        },
        {
          "indexed": true,
          "internalType": "address",
          "name": "operator",
          "type": "address"
        },
        {
          "indexed": false,
          "internalType": "bool",
          "name": "approved",
          "type": "bool"
        }
      ],
      "name": "ApprovalForAll",
      "type": "event"
    },
    {
      "anonymous": false,
      "inputs": [
        {
          "indexed": true,
          "internalType": "address",
          "name": "previousOwner",
          "type": "address"
        },
        {
          "indexed": true,
          "internalType": "address",
          "name": "newOwner",
          "type": "address"
        }
      ],
      "name": "OwnershipTransferred",
      "type": "event"
    },
    {
      "anonymous": false,
      "inputs": [
        {
          "indexed": false,
          "internalType": "uint256",
          "name": "id",
          "type": "uint256"
        },
        {
          "indexed": true,
          "internalType": "address",
          "name": "owner",
          "type": "address"
        },
        {
          "indexed": false,
          "internalType": "uint256",
          "name": "cost",
          "type": "uint256"
        },
        {
          "indexed": false,
          "internalType": "string",
          "name": "metadataURI",
          "type": "string"
        },
        {
          "indexed": false,
          "internalType": "uint256",
          "name": "timestamp",
          "type": "uint256"
        }
      ],
      "name": "Sale",
      "type": "event"
    },
    {
      "anonymous": false,
      "inputs": [
        {
          "indexed": true,
          "internalType": "address",
          "name": "from",
          "type": "address"
        },
        {
          "indexed": true,
          "internalType": "address",
          "name": "to",
          "type": "address"
        },
        {
          "indexed": true,
          "internalType": "uint256",
          "name": "tokenId",
          "type": "uint256"
        }
      ],
      "name": "Transfer",
      "type": "event"
    },
    {
      "inputs": [
        {
          "internalType": "address",
          "name": "to",
          "type": "address"
        },
        {
          "internalType": "uint256",
          "name": "tokenId",
          "type": "uint256"
        }
      ],
      "name": "approve",
      "outputs": [],
      "stateMutability": "nonpayable",
      "type": "function"
    },
    {
      "inputs": [],
      "name": "artist",
      "outputs": [
        {
          "internalType": "address",
          "name": "",
          "type": "address"
        }
      ],
      "stateMutability": "view",
      "type": "function",
      "constant": true
    },
    {
      "inputs": [
        {
          "internalType": "address",
          "name": "owner",
          "type": "address"
        }
      ],
      "name": "balanceOf",
      "outputs": [
        {
          "internalType": "uint256",
          "name": "",
          "type": "uint256"
        }
      ],
      "stateMutability": "view",
      "type": "function",
      "constant": true
    },
    {
      "inputs": [],
      "name": "cost",
      "outputs": [
        {
          "internalType": "uint256",
          "name": "",
          "type": "uint256"
        }
      ],
      "stateMutability": "view",
      "type": "function",
      "constant": true
    },
    {
      "inputs": [
        {
          "internalType": "uint256",
          "name": "tokenId",
          "type": "uint256"
        }
      ],
      "name": "getApproved",
      "outputs": [
        {
          "internalType": "address",
          "name": "",
          "type": "address"
        }
      ],
      "stateMutability": "view",
      "type": "function",
      "constant": true
    },
    {
      "inputs": [
        {
          "internalType": "uint256",
          "name": "",
          "type": "uint256"
        }
      ],
      "name": "holderOf",
      "outputs": [
        {
          "internalType": "address",
          "name": "",
          "type": "address"
        }
      ],
      "stateMutability": "view",
      "type": "function",
      "constant": true
    },
    {
      "inputs": [
        {
          "internalType": "address",
          "name": "owner",
          "type": "address"
        },
        {
          "internalType": "address",
          "name": "operator",
          "type": "address"
        }
      ],
      "name": "isApprovedForAll",
      "outputs": [
        {
          "internalType": "bool",
          "name": "",
          "type": "bool"
        }
      ],
      "stateMutability": "view",
      "type": "function",
      "constant": true
    },
    {
      "inputs": [],
      "name": "name",
      "outputs": [
        {
          "internalType": "string",
          "name": "",
          "type": "string"
        }
      ],
      "stateMutability": "view",
      "type": "function",
      "constant": true
    },
    {
      "inputs": [],
      "name": "owner",
      "outputs": [
        {
          "internalType": "address",
          "name": "",
          "type": "address"
        }
      ],
      "stateMutability": "view",
      "type": "function",
      "constant": true
    },
    {
      "inputs": [
        {
          "internalType": "uint256",
          "name": "tokenId",
          "type": "uint256"
        }
      ],
      "name": "ownerOf",
      "outputs": [
        {
          "internalType": "address",
          "name": "",
          "type": "address"
        }
      ],
      "stateMutability": "view",
      "type": "function",
      "constant": true
    },
    {
      "inputs": [],
      "name": "renounceOwnership",
      "outputs": [],
      "stateMutability": "nonpayable",
      "type": "function"
    },
    {
      "inputs": [],
      "name": "royalityFee",
      "outputs": [
        {
          "internalType": "uint256",
          "name": "",
          "type": "uint256"
        }
      ],
      "stateMutability": "view",
      "type": "function",
      "constant": true
    },
    {
      "inputs": [
        {
          "internalType": "address",
          "name": "from",
          "type": "address"
        },
        {
          "internalType": "address",
          "name": "to",
          "type": "address"
        },
        {
          "internalType": "uint256",
          "name": "tokenId",
          "type": "uint256"
        }
      ],
      "name": "safeTransferFrom",
      "outputs": [],
      "stateMutability": "payable",
      "type": "function",
      "payable": true
    },
    {
      "inputs": [
        {
          "internalType": "address",
          "name": "from",
          "type": "address"
        },
        {
          "internalType": "address",
          "name": "to",
          "type": "address"
        },
        {
          "internalType": "uint256",
          "name": "tokenId",
          "type": "uint256"
        },
        {
          "internalType": "bytes",
          "name": "_data",
          "type": "bytes"
        }
      ],
      "name": "safeTransferFrom",
      "outputs": [],
      "stateMutability": "payable",
      "type": "function",
      "payable": true
    },
    {
      "inputs": [
        {
          "internalType": "address",
          "name": "operator",
          "type": "address"
        },
        {
          "internalType": "bool",
          "name": "approved",
          "type": "bool"
        }
      ],
      "name": "setApprovalForAll",
      "outputs": [],
      "stateMutability": "nonpayable",
      "type": "function"
    },
    {
      "inputs": [],
      "name": "supply",
      "outputs": [
        {
          "internalType": "uint256",
          "name": "",
          "type": "uint256"
        }
      ],
      "stateMutability": "view",
      "type": "function",
      "constant": true
    },
    {
      "inputs": [
        {
          "internalType": "bytes4",
          "name": "interfaceId",
          "type": "bytes4"
        }
      ],
      "name": "supportsInterface",
      "outputs": [
        {
          "internalType": "bool",
          "name": "",
          "type": "bool"
        }
      ],
      "stateMutability": "view",
      "type": "function",
      "constant": true
    },
    {
      "inputs": [],
      "name": "symbol",
      "outputs": [
        {
          "internalType": "string",
          "name": "",
          "type": "string"
        }
      ],
      "stateMutability": "view",
      "type": "function",
      "constant": true
    },
    {
      "inputs": [
        {
          "internalType": "uint256",
          "name": "index",
          "type": "uint256"
        }
      ],
      "name": "tokenByIndex",
      "outputs": [
        {
          "internalType": "uint256",
          "name": "",
          "type": "uint256"
        }
      ],
      "stateMutability": "view",
      "type": "function",
      "constant": true
    },
    {
      "inputs": [
        {
          "internalType": "address",
          "name": "owner",
          "type": "address"
        },
        {
          "internalType": "uint256",
          "name": "index",
          "type": "uint256"
        }
      ],
      "name": "tokenOfOwnerByIndex",
      "outputs": [
        {
          "internalType": "uint256",
          "name": "",
          "type": "uint256"
        }
      ],
      "stateMutability": "view",
      "type": "function",
      "constant": true
    },
    {
      "inputs": [
        {
          "internalType": "uint256",
          "name": "tokenId",
          "type": "uint256"
        }
      ],
      "name": "tokenURI",
      "outputs": [
        {
          "internalType": "string",
          "name": "",
          "type": "string"
        }
      ],
      "stateMutability": "view",
      "type": "function",
      "constant": true
    },
    {
      "inputs": [],
      "name": "totalSupply",
      "outputs": [
        {
          "internalType": "uint256",
          "name": "",
          "type": "uint256"
        }
      ],
      "stateMutability": "view",
      "type": "function",
      "constant": true
    },
    {
      "inputs": [],
      "name": "totalTx",
      "outputs": [
        {
          "internalType": "uint256",
          "name": "",
          "type": "uint256"
        }
      ],
      "stateMutability": "view",
      "type": "function",
      "constant": true
    },
    {
      "inputs": [
        {
          "internalType": "address",
          "name": "from",
          "type": "address"
        },
        {
          "internalType": "address",
          "name": "to",
          "type": "address"
        },
        {
          "internalType": "uint256",
          "name": "tokenId",
          "type": "uint256"
        }
      ],
      "name": "transferFrom",
      "outputs": [],
      "stateMutability": "payable",
      "type": "function",
      "payable": true
    },
    {
      "inputs": [
        {
          "internalType": "address",
          "name": "newOwner",
          "type": "address"
        }
      ],
      "name": "transferOwnership",
      "outputs": [],
      "stateMutability": "nonpayable",
      "type": "function"
    },
    {
      "inputs": [
        {
          "internalType": "string",
          "name": "title",
          "type": "string"
        },
        {
          "internalType": "string",
          "name": "description",
          "type": "string"
        },
        {
          "internalType": "string",
          "name": "metadataURI",
          "type": "string"
        },
        {
          "internalType": "uint256",
          "name": "salesPrice",
          "type": "uint256"
        }
      ],
      "name": "payToMint",
      "outputs": [],
      "stateMutability": "payable",
      "type": "function",
      "payable": true
    },
    {
      "inputs": [
        {
          "internalType": "uint256",
          "name": "id",
          "type": "uint256"
        }
      ],
      "name": "payToBuy",
      "outputs": [],
      "stateMutability": "payable",
      "type": "function",
      "payable": true
    },
    {
      "inputs": [
        {
          "internalType": "uint256",
          "name": "id",
          "type": "uint256"
        },
        {
          "internalType": "uint256",
          "name": "newPrice",
          "type": "uint256"
        }
      ],
      "name": "changePrice",
      "outputs": [
        {
          "internalType": "bool",
          "name": "",
          "type": "bool"
        }
      ],
      "stateMutability": "nonpayable",
      "type": "function"
    },
    {
      "inputs": [],
      "name": "getAllNFTs",
      "outputs": [
        {
          "components": [
            {
              "internalType": "uint256",
              "name": "id",
              "type": "uint256"
            },
            {
              "internalType": "address",
              "name": "owner",
              "type": "address"
            },
            {
              "internalType": "uint256",
              "name": "cost",
              "type": "uint256"
            },
            {
              "internalType": "string",
              "name": "title",
              "type": "string"
            },
            {
              "internalType": "string",
              "name": "description",
              "type": "string"
            },
            {
              "internalType": "string",
              "name": "metadataURI",
              "type": "string"
            },
            {
              "internalType": "uint256",
              "name": "timestamp",
              "type": "uint256"
            }
          ],
          "internalType": "struct AsifNFT.TransactionStruct[]",
          "name": "",
          "type": "tuple[]"
        }
      ],
      "stateMutability": "view",
      "type": "function",
      "constant": true
    },
    {
      "inputs": [
        {
          "internalType": "uint256",
          "name": "id",
          "type": "uint256"
        }
      ],
      "name": "getNFT",
      "outputs": [
        {
          "components": [
            {
              "internalType": "uint256",
              "name": "id",
              "type": "uint256"
            },
            {
              "internalType": "address",
              "name": "owner",
              "type": "address"
            },
            {
              "internalType": "uint256",
              "name": "cost",
              "type": "uint256"
            },
            {
              "internalType": "string",
              "name": "title",
              "type": "string"
            },
            {
              "internalType": "string",
              "name": "description",
              "type": "string"
            },
            {
              "internalType": "string",
              "name": "metadataURI",
              "type": "string"
            },
            {
              "internalType": "uint256",
              "name": "timestamp",
              "type": "uint256"
            }
          ],
          "internalType": "struct AsifNFT.TransactionStruct",
          "name": "",
          "type": "tuple"
        }
      ],
      "stateMutability": "view",
      "type": "function",
      "constant": true
    },
    {
      "inputs": [],
      "name": "getAllTransactions",
      "outputs": [
        {
          "components": [
            {
              "internalType": "uint256",
              "name": "id",
              "type": "uint256"
            },
            {
              "internalType": "address",
              "name": "owner",
              "type": "address"
            },
            {
              "internalType": "uint256",
              "name": "cost",
              "type": "uint256"
            },
            {
              "internalType": "string",
              "name": "title",
              "type": "string"
            },
            {
              "internalType": "string",
              "name": "description",
              "type": "string"
            },
            {
              "internalType": "string",
              "name": "metadataURI",
              "type": "string"
            },
            {
              "internalType": "uint256",
              "name": "timestamp",
              "type": "uint256"
            }
          ],
          "internalType": "struct AsifNFT.TransactionStruct[]",
          "name": "",
          "type": "tuple[]"
        }
      ],
      "stateMutability": "view",
      "type": "function",
      "constant": true
    }
  ],
  "bytecode": "0x60806040526000600f556000601055662386f26fc100006011553480156200002657600080fd5b5060405162005c1a38038062005c1a83398181016040528101906200004c9190620003e7565b838381600090816200005f9190620006d8565b508060019081620000719190620006d8565b5050506200009462000088620000e660201b60201c565b620000ee60201b60201c565b81600e8190555080600d60006101000a81548173ffffffffffffffffffffffffffffffffffffffff021916908373ffffffffffffffffffffffffffffffffffffffff16021790555050505050620007bf565b600033905090565b6000600a60009054906101000a900473ffffffffffffffffffffffffffffffffffffffff16905081600a60006101000a81548173ffffffffffffffffffffffffffffffffffffffff021916908373ffffffffffffffffffffffffffffffffffffffff1602179055508173ffffffffffffffffffffffffffffffffffffffff168173ffffffffffffffffffffffffffffffffffffffff167f8be0079c531659141344cd1fd0a4f28419497f9722a3daafe3b4186f6b6457e060405160405180910390a35050565b6000604051905090565b600080fd5b600080fd5b600080fd5b600080fd5b6000601f19601f8301169050919050565b7f4e487b7100000000000000000000000000000000000000000000000000000000600052604160045260246000fd5b6200021d82620001d2565b810181811067ffffffffffffffff821117156200023f576200023e620001e3565b5b80604052505050565b600062000254620001b4565b905062000262828262000212565b919050565b600067ffffffffffffffff821115620002855762000284620001e3565b5b6200029082620001d2565b9050602081019050919050565b60005b83811015620002bd578082015181840152602081019050620002a0565b60008484015250505050565b6000620002e0620002da8462000267565b62000248565b905082815260208101848484011115620002ff57620002fe620001cd565b5b6200030c8482856200029d565b509392505050565b600082601f8301126200032c576200032b620001c8565b5b81516200033e848260208601620002c9565b91505092915050565b6000819050919050565b6200035c8162000347565b81146200036857600080fd5b50565b6000815190506200037c8162000351565b92915050565b600073ffffffffffffffffffffffffffffffffffffffff82169050919050565b6000620003af8262000382565b9050919050565b620003c181620003a2565b8114620003cd57600080fd5b50565b600081519050620003e181620003b6565b92915050565b60008060008060808587031215620004045762000403620001be565b5b600085015167ffffffffffffffff811115620004255762000424620001c3565b5b620004338782880162000314565b945050602085015167ffffffffffffffff811115620004575762000456620001c3565b5b620004658782880162000314565b935050604062000478878288016200036b565b92505060606200048b87828801620003d0565b91505092959194509250565b600081519050919050565b7f4e487b7100000000000000000000000000000000000000000000000000000000600052602260045260246000fd5b60006002820490506001821680620004ea57607f821691505b6020821081036200050057620004ff620004a2565b5b50919050565b60008190508160005260206000209050919050565b60006020601f8301049050919050565b600082821b905092915050565b6000600883026200056a7fffffffffffffffffffffffffffffffffffffffffffffffffffffffffffffffff826200052b565b6200057686836200052b565b95508019841693508086168417925050509392505050565b6000819050919050565b6000620005b9620005b3620005ad8462000347565b6200058e565b62000347565b9050919050565b6000819050919050565b620005d58362000598565b620005ed620005e482620005c0565b84845462000538565b825550505050565b600090565b62000604620005f5565b62000611818484620005ca565b505050565b5b8181101562000639576200062d600082620005fa565b60018101905062000617565b5050565b601f8211156200068857620006528162000506565b6200065d846200051b565b810160208510156200066d578190505b620006856200067c856200051b565b83018262000616565b50505b505050565b600082821c905092915050565b6000620006ad600019846008026200068d565b1980831691505092915050565b6000620006c883836200069a565b9150826002028217905092915050565b620006e38262000497565b67ffffffffffffffff811115620006ff57620006fe620001e3565b5b6200070b8254620004d1565b620007188282856200063d565b600060209050601f8311600181146200075057600084156200073b578287015190505b620007478582620006ba565b865550620007b7565b601f198416620007608662000506565b60005b828110156200078a5784890151825560018201915060208501945060208101905062000763565b86831015620007aa5784890151620007a6601f8916826200069a565b8355505b6001600288020188555050505b505050505050565b61544b80620007cf6000396000f3fe6080604052600436106101d85760003560e01c80636352211e11610102578063a22cb46511610095578063dbacc23711610064578063dbacc237146106a5578063e0391b09146106e2578063e985e9c51461070d578063f2fde38b1461074a576101d8565b8063a22cb465146105e6578063b3de019c1461060f578063b88d4fde1461064c578063c87b56dd14610668576101d8565b8063799c0c1e116100d1578063799c0c1e146105585780638da5cb5b1461057457806395d89b411461059f5780639ba4b017146105ca576101d8565b80636352211e1461049c57806370a08231146104d9578063715018a6146105165780637220cf391461052d576101d8565b806323b872dd1161017a57806342842e0e1161014957806342842e0e146103db57806343bc1612146103f75780634f6ccce714610422578063576f7ea71461045f576101d8565b806323b872dd1461032c57806327506f53146103485780632f745c5914610373578063326bb4ad146103b0576101d8565b8063081812fc116101b6578063081812fc14610270578063095ea7b3146102ad57806313faede6146102d657806318160ddd14610301576101d8565b806301ffc9a7146101dd578063047fc9aa1461021a57806306fdde0314610245575b600080fd5b3480156101e957600080fd5b5061020460048036038101906101ff9190613728565b610773565b6040516102119190613770565b60405180910390f35b34801561022657600080fd5b5061022f6107ed565b60405161023c91906137a4565b60405180910390f35b34801561025157600080fd5b5061025a6107f3565b604051610267919061384f565b60405180910390f35b34801561027c57600080fd5b506102976004803603810190610292919061389d565b610885565b6040516102a4919061390b565b60405180910390f35b3480156102b957600080fd5b506102d460048036038101906102cf9190613952565b61090a565b005b3480156102e257600080fd5b506102eb610a21565b6040516102f891906137a4565b60405180910390f35b34801561030d57600080fd5b50610316610a27565b60405161032391906137a4565b60405180910390f35b61034660048036038101906103419190613992565b610a34565b005b34801561035457600080fd5b5061035d610a94565b60405161036a9190613bb9565b60405180910390f35b34801561037f57600080fd5b5061039a60048036038101906103959190613952565b610d1d565b6040516103a791906137a4565b60405180910390f35b3480156103bc57600080fd5b506103c5610dc2565b6040516103d291906137a4565b60405180910390f35b6103f560048036038101906103f09190613992565b610dc8565b005b34801561040357600080fd5b5061040c610de8565b604051610419919061390b565b60405180910390f35b34801561042e57600080fd5b506104496004803603810190610444919061389d565b610e0e565b60405161045691906137a4565b60405180910390f35b34801561046b57600080fd5b506104866004803603810190610481919061389d565b610e7f565b6040516104939190613c85565b60405180910390f35b3480156104a857600080fd5b506104c360048036038101906104be919061389d565b6110f1565b6040516104d0919061390b565b60405180910390f35b3480156104e557600080fd5b5061050060048036038101906104fb9190613ca7565b6111a2565b60405161050d91906137a4565b60405180910390f35b34801561052257600080fd5b5061052b611259565b005b34801561053957600080fd5b5061054261126d565b60405161054f91906137a4565b60405180910390f35b610572600480360381019061056d9190613e09565b611273565b005b34801561058057600080fd5b506105896115bb565b604051610596919061390b565b60405180910390f35b3480156105ab57600080fd5b506105b46115e5565b6040516105c1919061384f565b60405180910390f35b6105e460048036038101906105df919061389d565b611677565b005b3480156105f257600080fd5b5061060d60048036038101906106089190613ef0565b611cb6565b005b34801561061b57600080fd5b5061063660048036038101906106319190613f30565b611ccc565b6040516106439190613770565b60405180910390f35b61066660048036038101906106619190614011565b611e0f565b005b34801561067457600080fd5b5061068f600480360381019061068a919061389d565b611e71565b60405161069c919061384f565b60405180910390f35b3480156106b157600080fd5b506106cc60048036038101906106c7919061389d565b611f18565b6040516106d9919061390b565b60405180910390f35b3480156106ee57600080fd5b506106f7611f4b565b6040516107049190613bb9565b60405180910390f35b34801561071957600080fd5b50610734600480360381019061072f9190614094565b6121d4565b6040516107419190613770565b60405180910390f35b34801561075657600080fd5b50610771600480360381019061076c9190613ca7565b612268565b005b60007f780e9d63000000000000000000000000000000000000000000000000000000007bffffffffffffffffffffffffffffffffffffffffffffffffffffffff1916827bffffffffffffffffffffffffffffffffffffffffffffffffffffffff191614806107e657506107e5826122eb565b5b9050919050565b600f5481565b60606000805461080290614103565b80601f016020809104026020016040519081016040528092919081815260200182805461082e90614103565b801561087b5780601f106108505761010080835404028352916020019161087b565b820191906000526020600020905b81548152906001019060200180831161085e57829003601f168201915b5050505050905090565b6000610890826123cd565b6108cf576040517f08c379a00000000000000000000000000000000000000000000000000000000081526004016108c6906141a6565b60405180910390fd5b6004600083815260200190815260200160002060009054906101000a900473ffffffffffffffffffffffffffffffffffffffff169050919050565b6000610915826110f1565b90508073ffffffffffffffffffffffffffffffffffffffff168373ffffffffffffffffffffffffffffffffffffffff1603610985576040517f08c379a000000000000000000000000000000000000000000000000000000000815260040161097c90614238565b60405180910390fd5b8073ffffffffffffffffffffffffffffffffffffffff166109a4612439565b73ffffffffffffffffffffffffffffffffffffffff1614806109d357506109d2816109cd612439565b6121d4565b5b610a12576040517f08c379a0000000000000000000000000000000000000000000000000000000008152600401610a09906142ca565b60405180910390fd5b610a1c8383612441565b505050565b60115481565b6000600880549050905090565b610a45610a3f612439565b826124fa565b610a84576040517f08c379a0000000000000000000000000000000000000000000000000000000008152600401610a7b9061435c565b60405180910390fd5b610a8f8383836125d8565b505050565b60606012805480602002602001604051908101604052809291908181526020016000905b82821015610d1457838290600052602060002090600702016040518060e0016040529081600082015481526020016001820160009054906101000a900473ffffffffffffffffffffffffffffffffffffffff1673ffffffffffffffffffffffffffffffffffffffff1673ffffffffffffffffffffffffffffffffffffffff16815260200160028201548152602001600382018054610b5590614103565b80601f0160208091040260200160405190810160405280929190818152602001828054610b8190614103565b8015610bce5780601f10610ba357610100808354040283529160200191610bce565b820191906000526020600020905b815481529060010190602001808311610bb157829003601f168201915b50505050508152602001600482018054610be790614103565b80601f0160208091040260200160405190810160405280929190818152602001828054610c1390614103565b8015610c605780601f10610c3557610100808354040283529160200191610c60565b820191906000526020600020905b815481529060010190602001808311610c4357829003601f168201915b50505050508152602001600582018054610c7990614103565b80601f0160208091040260200160405190810160405280929190818152602001828054610ca590614103565b8015610cf25780601f10610cc757610100808354040283529160200191610cf2565b820191906000526020600020905b815481529060010190602001808311610cd557829003601f168201915b5050505050815260200160068201548152505081526020019060010190610ab8565b50505050905090565b6000610d28836111a2565b8210610d69576040517f08c379a0000000000000000000000000000000000000000000000000000000008152600401610d60906143ee565b60405180910390fd5b600660008473ffffffffffffffffffffffffffffffffffffffff1673ffffffffffffffffffffffffffffffffffffffff168152602001908152602001600020600083815260200190815260200160002054905092915050565b600e5481565b610de383838360405180602001604052806000815250611e0f565b505050565b600d60009054906101000a900473ffffffffffffffffffffffffffffffffffffffff1681565b6000610e18610a27565b8210610e59576040517f08c379a0000000000000000000000000000000000000000000000000000000008152600401610e5090614480565b60405180910390fd5b60088281548110610e6d57610e6c6144a0565b5b90600052602060002001549050919050565b610e87613669565b6013600183610e9691906144fe565b81548110610ea757610ea66144a0565b5b90600052602060002090600702016040518060e0016040529081600082015481526020016001820160009054906101000a900473ffffffffffffffffffffffffffffffffffffffff1673ffffffffffffffffffffffffffffffffffffffff1673ffffffffffffffffffffffffffffffffffffffff16815260200160028201548152602001600382018054610f3a90614103565b80601f0160208091040260200160405190810160405280929190818152602001828054610f6690614103565b8015610fb35780601f10610f8857610100808354040283529160200191610fb3565b820191906000526020600020905b815481529060010190602001808311610f9657829003601f168201915b50505050508152602001600482018054610fcc90614103565b80601f0160208091040260200160405190810160405280929190818152602001828054610ff890614103565b80156110455780601f1061101a57610100808354040283529160200191611045565b820191906000526020600020905b81548152906001019060200180831161102857829003601f168201915b5050505050815260200160058201805461105e90614103565b80601f016020809104026020016040519081016040528092919081815260200182805461108a90614103565b80156110d75780601f106110ac576101008083540402835291602001916110d7565b820191906000526020600020905b8154815290600101906020018083116110ba57829003601f168201915b505050505081526020016006820154815250509050919050565b6000806002600084815260200190815260200160002060009054906101000a900473ffffffffffffffffffffffffffffffffffffffff169050600073ffffffffffffffffffffffffffffffffffffffff168173ffffffffffffffffffffffffffffffffffffffff1603611199576040517f08c379a0000000000000000000000000000000000000000000000000000000008152600401611190906145a4565b60405180910390fd5b80915050919050565b60008073ffffffffffffffffffffffffffffffffffffffff168273ffffffffffffffffffffffffffffffffffffffff1603611212576040517f08c379a000000000000000000000000000000000000000000000000000000000815260040161120990614636565b60405180910390fd5b600360008373ffffffffffffffffffffffffffffffffffffffff1673ffffffffffffffffffffffffffffffffffffffff168152602001908152602001600020549050919050565b611261612833565b61126b60006128b1565b565b60105481565b6011543410156112b8576040517f08c379a00000000000000000000000000000000000000000000000000000000081526004016112af906146a2565b60405180910390fd5b6000600b836040516112ca91906146fe565b908152602001604051809103902060009054906101000a900460ff1660ff1614611329576040517f08c379a000000000000000000000000000000000000000000000000000000000815260040161132090614761565b60405180910390fd5b60006064600e543461133b9190614781565b61134591906147f2565b9050611373600d60009054906101000a900473ffffffffffffffffffffffffffffffffffffffff1682612977565b61138f61137e6115bb565b823461138a91906144fe565b612977565b600f60008154809291906113a290614823565b919050555060136040518060e00160405280600f5481526020013373ffffffffffffffffffffffffffffffffffffffff1681526020018481526020018781526020018681526020018581526020014281525090806001815401808255809150506001900390600052602060002090600702016000909190919091506000820151816000015560208201518160010160006101000a81548173ffffffffffffffffffffffffffffffffffffffff021916908373ffffffffffffffffffffffffffffffffffffffff16021790555060408201518160020155606082015181600301908161148d9190614a17565b5060808201518160040190816114a39190614a17565b5060a08201518160050190816114b99190614a17565b5060c0820151816006015550503373ffffffffffffffffffffffffffffffffffffffff167fb9508407a6eccb191d8da3286f4173697cf95604e9ea192fe5ab7c862b5221f6600f543486426040516115149493929190614ae9565b60405180910390a261152833600f546129f2565b6001600b8460405161153a91906146fe565b908152602001604051809103902060006101000a81548160ff021916908360ff16021790555033600c6000600f54815260200190815260200160002060006101000a81548173ffffffffffffffffffffffffffffffffffffffff021916908373ffffffffffffffffffffffffffffffffffffffff1602179055505050505050565b6000600a60009054906101000a900473ffffffffffffffffffffffffffffffffffffffff16905090565b6060600180546115f490614103565b80601f016020809104026020016040519081016040528092919081815260200182805461162090614103565b801561166d5780601f106116425761010080835404028352916020019161166d565b820191906000526020600020905b81548152906001019060200180831161165057829003601f168201915b5050505050905090565b601360018261168691906144fe565b81548110611697576116966144a0565b5b9060005260206000209060070201600201543410156116eb576040517f08c379a00000000000000000000000000000000000000000000000000000000081526004016116e290614b81565b60405180910390fd5b60136001826116fa91906144fe565b8154811061170b5761170a6144a0565b5b906000526020600020906007020160010160009054906101000a900473ffffffffffffffffffffffffffffffffffffffff1673ffffffffffffffffffffffffffffffffffffffff163373ffffffffffffffffffffffffffffffffffffffff16036117aa576040517f08c379a00000000000000000000000000000000000000000000000000000000081526004016117a190614bed565b60405180910390fd5b60006064600e54346117bc9190614781565b6117c691906147f2565b90506117f4600d60009054906101000a900473ffffffffffffffffffffffffffffffffffffffff1682612977565b61185a601360018461180691906144fe565b81548110611817576118166144a0565b5b906000526020600020906007020160010160009054906101000a900473ffffffffffffffffffffffffffffffffffffffff16823461185591906144fe565b612977565b6010600081548092919061186d90614823565b919050555060126040518060e0016040528060105481526020013373ffffffffffffffffffffffffffffffffffffffff16815260200134815260200160136001866118b891906144fe565b815481106118c9576118c86144a0565b5b906000526020600020906007020160030180546118e590614103565b80601f016020809104026020016040519081016040528092919081815260200182805461191190614103565b801561195e5780601f106119335761010080835404028352916020019161195e565b820191906000526020600020905b81548152906001019060200180831161194157829003601f168201915b50505050508152602001601360018661197791906144fe565b81548110611988576119876144a0565b5b906000526020600020906007020160040180546119a490614103565b80601f01602080910402602001604051908101604052809291908181526020018280546119d090614103565b8015611a1d5780601f106119f257610100808354040283529160200191611a1d565b820191906000526020600020905b815481529060010190602001808311611a0057829003601f168201915b505050505081526020016013600186611a3691906144fe565b81548110611a4757611a466144a0565b5b90600052602060002090600702016005018054611a6390614103565b80601f0160208091040260200160405190810160405280929190818152602001828054611a8f90614103565b8015611adc5780601f10611ab157610100808354040283529160200191611adc565b820191906000526020600020905b815481529060010190602001808311611abf57829003601f168201915b505050505081526020014281525090806001815401808255809150506001900390600052602060002090600702016000909190919091506000820151816000015560208201518160010160006101000a81548173ffffffffffffffffffffffffffffffffffffffff021916908373ffffffffffffffffffffffffffffffffffffffff160217905550604082015181600201556060820151816003019081611b839190614a17565b506080820151816004019081611b999190614a17565b5060a0820151816005019081611baf9190614a17565b5060c0820151816006015550503373ffffffffffffffffffffffffffffffffffffffff167fb9508407a6eccb191d8da3286f4173697cf95604e9ea192fe5ab7c862b5221f6601054346013600187611c0791906144fe565b81548110611c1857611c176144a0565b5b906000526020600020906007020160050142604051611c3a9493929190614c91565b60405180910390a2336013600184611c5291906144fe565b81548110611c6357611c626144a0565b5b906000526020600020906007020160010160006101000a81548173ffffffffffffffffffffffffffffffffffffffff021916908373ffffffffffffffffffffffffffffffffffffffff1602179055505050565b611cc8611cc1612439565b8383612a10565b5050565b6000808211611d10576040517f08c379a0000000000000000000000000000000000000000000000000000000008152600401611d0790614d29565b60405180910390fd5b6013600184611d1f91906144fe565b81548110611d3057611d2f6144a0565b5b906000526020600020906007020160010160009054906101000a900473ffffffffffffffffffffffffffffffffffffffff1673ffffffffffffffffffffffffffffffffffffffff163373ffffffffffffffffffffffffffffffffffffffff1614611dcf576040517f08c379a0000000000000000000000000000000000000000000000000000000008152600401611dc690614bed565b60405180910390fd5b816013600185611ddf91906144fe565b81548110611df057611def6144a0565b5b9060005260206000209060070201600201819055506001905092915050565b611e20611e1a612439565b836124fa565b611e5f576040517f08c379a0000000000000000000000000000000000000000000000000000000008152600401611e569061435c565b60405180910390fd5b611e6b84848484612b7c565b50505050565b6060611e7c826123cd565b611ebb576040517f08c379a0000000000000000000000000000000000000000000000000000000008152600401611eb290614dbb565b60405180910390fd5b6000611ec5612bd8565b90506000815111611ee55760405180602001604052806000815250611f10565b80611eef84612bef565b604051602001611f00929190614ddb565b6040516020818303038152906040525b915050919050565b600c6020528060005260406000206000915054906101000a900473ffffffffffffffffffffffffffffffffffffffff1681565b60606013805480602002602001604051908101604052809291908181526020016000905b828210156121cb57838290600052602060002090600702016040518060e0016040529081600082015481526020016001820160009054906101000a900473ffffffffffffffffffffffffffffffffffffffff1673ffffffffffffffffffffffffffffffffffffffff1673ffffffffffffffffffffffffffffffffffffffff1681526020016002820154815260200160038201805461200c90614103565b80601f016020809104026020016040519081016040528092919081815260200182805461203890614103565b80156120855780601f1061205a57610100808354040283529160200191612085565b820191906000526020600020905b81548152906001019060200180831161206857829003601f168201915b5050505050815260200160048201805461209e90614103565b80601f01602080910402602001604051908101604052809291908181526020018280546120ca90614103565b80156121175780601f106120ec57610100808354040283529160200191612117565b820191906000526020600020905b8154815290600101906020018083116120fa57829003601f168201915b5050505050815260200160058201805461213090614103565b80601f016020809104026020016040519081016040528092919081815260200182805461215c90614103565b80156121a95780601f1061217e576101008083540402835291602001916121a9565b820191906000526020600020905b81548152906001019060200180831161218c57829003601f168201915b5050505050815260200160068201548152505081526020019060010190611f6f565b50505050905090565b6000600560008473ffffffffffffffffffffffffffffffffffffffff1673ffffffffffffffffffffffffffffffffffffffff16815260200190815260200160002060008373ffffffffffffffffffffffffffffffffffffffff1673ffffffffffffffffffffffffffffffffffffffff16815260200190815260200160002060009054906101000a900460ff16905092915050565b612270612833565b600073ffffffffffffffffffffffffffffffffffffffff168173ffffffffffffffffffffffffffffffffffffffff16036122df576040517f08c379a00000000000000000000000000000000000000000000000000000000081526004016122d690614e71565b60405180910390fd5b6122e8816128b1565b50565b60007f80ac58cd000000000000000000000000000000000000000000000000000000007bffffffffffffffffffffffffffffffffffffffffffffffffffffffff1916827bffffffffffffffffffffffffffffffffffffffffffffffffffffffff191614806123b657507f5b5e139f000000000000000000000000000000000000000000000000000000007bffffffffffffffffffffffffffffffffffffffffffffffffffffffff1916827bffffffffffffffffffffffffffffffffffffffffffffffffffffffff1916145b806123c657506123c582612cbd565b5b9050919050565b60008073ffffffffffffffffffffffffffffffffffffffff166002600084815260200190815260200160002060009054906101000a900473ffffffffffffffffffffffffffffffffffffffff1673ffffffffffffffffffffffffffffffffffffffff1614159050919050565b600033905090565b816004600083815260200190815260200160002060006101000a81548173ffffffffffffffffffffffffffffffffffffffff021916908373ffffffffffffffffffffffffffffffffffffffff160217905550808273ffffffffffffffffffffffffffffffffffffffff166124b4836110f1565b73ffffffffffffffffffffffffffffffffffffffff167f8c5be1e5ebec7d5bd14f71427d1e84f3dd0314c0f7b2291e5b200ac8c7c3b92560405160405180910390a45050565b6000612505826123cd565b612544576040517f08c379a000000000000000000000000000000000000000000000000000000000815260040161253b90614f03565b60405180910390fd5b600061254f836110f1565b90508073ffffffffffffffffffffffffffffffffffffffff168473ffffffffffffffffffffffffffffffffffffffff1614806125be57508373ffffffffffffffffffffffffffffffffffffffff166125a684610885565b73ffffffffffffffffffffffffffffffffffffffff16145b806125cf57506125ce81856121d4565b5b91505092915050565b8273ffffffffffffffffffffffffffffffffffffffff166125f8826110f1565b73ffffffffffffffffffffffffffffffffffffffff161461264e576040517f08c379a000000000000000000000000000000000000000000000000000000000815260040161264590614f95565b60405180910390fd5b600073ffffffffffffffffffffffffffffffffffffffff168273ffffffffffffffffffffffffffffffffffffffff16036126bd576040517f08c379a00000000000000000000000000000000000000000000000000000000081526004016126b490615027565b60405180910390fd5b6126c8838383612d27565b6126d3600082612441565b6001600360008573ffffffffffffffffffffffffffffffffffffffff1673ffffffffffffffffffffffffffffffffffffffff168152602001908152602001600020600082825461272391906144fe565b925050819055506001600360008473ffffffffffffffffffffffffffffffffffffffff1673ffffffffffffffffffffffffffffffffffffffff168152602001908152602001600020600082825461277a9190615047565b92505081905550816002600083815260200190815260200160002060006101000a81548173ffffffffffffffffffffffffffffffffffffffff021916908373ffffffffffffffffffffffffffffffffffffffff160217905550808273ffffffffffffffffffffffffffffffffffffffff168473ffffffffffffffffffffffffffffffffffffffff167fddf252ad1be2c89b69c2b068fc378daa952ba7f163c4a11628f55a4df523b3ef60405160405180910390a4505050565b61283b612439565b73ffffffffffffffffffffffffffffffffffffffff166128596115bb565b73ffffffffffffffffffffffffffffffffffffffff16146128af576040517f08c379a00000000000000000000000000000000000000000000000000000000081526004016128a6906150c7565b60405180910390fd5b565b6000600a60009054906101000a900473ffffffffffffffffffffffffffffffffffffffff16905081600a60006101000a81548173ffffffffffffffffffffffffffffffffffffffff021916908373ffffffffffffffffffffffffffffffffffffffff1602179055508173ffffffffffffffffffffffffffffffffffffffff168173ffffffffffffffffffffffffffffffffffffffff167f8be0079c531659141344cd1fd0a4f28419497f9722a3daafe3b4186f6b6457e060405160405180910390a35050565b60008273ffffffffffffffffffffffffffffffffffffffff168260405161299d90615118565b60006040518083038185875af1925050503d80600081146129da576040519150601f19603f3d011682016040523d82523d6000602084013e6129df565b606091505b50509050806129ed57600080fd5b505050565b612a0c828260405180602001604052806000815250612e39565b5050565b8173ffffffffffffffffffffffffffffffffffffffff168373ffffffffffffffffffffffffffffffffffffffff1603612a7e576040517f08c379a0000000000000000000000000000000000000000000000000000000008152600401612a7590615179565b60405180910390fd5b80600560008573ffffffffffffffffffffffffffffffffffffffff1673ffffffffffffffffffffffffffffffffffffffff16815260200190815260200160002060008473ffffffffffffffffffffffffffffffffffffffff1673ffffffffffffffffffffffffffffffffffffffff16815260200190815260200160002060006101000a81548160ff0219169083151502179055508173ffffffffffffffffffffffffffffffffffffffff168373ffffffffffffffffffffffffffffffffffffffff167f17307eab39ab6107e8899845ad3d59bd9653f200f220920489ca2b5937696c3183604051612b6f9190613770565b60405180910390a3505050565b612b878484846125d8565b612b9384848484612e94565b612bd2576040517f08c379a0000000000000000000000000000000000000000000000000000000008152600401612bc99061520b565b60405180910390fd5b50505050565b606060405180602001604052806000815250905090565b606060006001612bfe8461301b565b01905060008167ffffffffffffffff811115612c1d57612c1c613cde565b5b6040519080825280601f01601f191660200182016040528015612c4f5781602001600182028036833780820191505090505b509050600082602001820190505b600115612cb2578080600190039150507f3031323334353637383961626364656600000000000000000000000000000000600a86061a8153600a8581612ca657612ca56147c3565b5b04945060008503612c5d575b819350505050919050565b60007f01ffc9a7000000000000000000000000000000000000000000000000000000007bffffffffffffffffffffffffffffffffffffffffffffffffffffffff1916827bffffffffffffffffffffffffffffffffffffffffffffffffffffffff1916149050919050565b612d3283838361316e565b600073ffffffffffffffffffffffffffffffffffffffff168373ffffffffffffffffffffffffffffffffffffffff1603612d7457612d6f81613173565b612db3565b8173ffffffffffffffffffffffffffffffffffffffff168373ffffffffffffffffffffffffffffffffffffffff1614612db257612db183826131bc565b5b5b600073ffffffffffffffffffffffffffffffffffffffff168273ffffffffffffffffffffffffffffffffffffffff1603612df557612df081613329565b612e34565b8273ffffffffffffffffffffffffffffffffffffffff168273ffffffffffffffffffffffffffffffffffffffff1614612e3357612e3282826133fa565b5b5b505050565b612e438383613479565b612e506000848484612e94565b612e8f576040517f08c379a0000000000000000000000000000000000000000000000000000000008152600401612e869061520b565b60405180910390fd5b505050565b6000612eb58473ffffffffffffffffffffffffffffffffffffffff16613646565b1561300e578373ffffffffffffffffffffffffffffffffffffffff1663150b7a02612ede612439565b8786866040518563ffffffff1660e01b8152600401612f009493929190615280565b6020604051808303816000875af1925050508015612f3c57506040513d601f19601f82011682018060405250810190612f3991906152e1565b60015b612fbe573d8060008114612f6c576040519150601f19603f3d011682016040523d82523d6000602084013e612f71565b606091505b506000815103612fb6576040517f08c379a0000000000000000000000000000000000000000000000000000000008152600401612fad9061520b565b60405180910390fd5b805181602001fd5b63150b7a0260e01b7bffffffffffffffffffffffffffffffffffffffffffffffffffffffff1916817bffffffffffffffffffffffffffffffffffffffffffffffffffffffff191614915050613013565b600190505b949350505050565b600080600090507a184f03e93ff9f4daa797ed6e38ed64bf6a1f0100000000000000008310613079577a184f03e93ff9f4daa797ed6e38ed64bf6a1f010000000000000000838161306f5761306e6147c3565b5b0492506040810190505b6d04ee2d6d415b85acef810000000083106130b6576d04ee2d6d415b85acef810000000083816130ac576130ab6147c3565b5b0492506020810190505b662386f26fc1000083106130e557662386f26fc1000083816130db576130da6147c3565b5b0492506010810190505b6305f5e100831061310e576305f5e1008381613104576131036147c3565b5b0492506008810190505b6127108310613133576127108381613129576131286147c3565b5b0492506004810190505b60648310613156576064838161314c5761314b6147c3565b5b0492506002810190505b600a8310613165576001810190505b80915050919050565b505050565b6008805490506009600083815260200190815260200160002081905550600881908060018154018082558091505060019003906000526020600020016000909190919091505550565b600060016131c9846111a2565b6131d391906144fe565b90506000600760008481526020019081526020016000205490508181146132b8576000600660008673ffffffffffffffffffffffffffffffffffffffff1673ffffffffffffffffffffffffffffffffffffffff168152602001908152602001600020600084815260200190815260200160002054905080600660008773ffffffffffffffffffffffffffffffffffffffff1673ffffffffffffffffffffffffffffffffffffffff168152602001908152602001600020600084815260200190815260200160002081905550816007600083815260200190815260200160002081905550505b6007600084815260200190815260200160002060009055600660008573ffffffffffffffffffffffffffffffffffffffff1673ffffffffffffffffffffffffffffffffffffffff16815260200190815260200160002060008381526020019081526020016000206000905550505050565b6000600160088054905061333d91906144fe565b905060006009600084815260200190815260200160002054905060006008838154811061336d5761336c6144a0565b5b90600052602060002001549050806008838154811061338f5761338e6144a0565b5b9060005260206000200181905550816009600083815260200190815260200160002081905550600960008581526020019081526020016000206000905560088054806133de576133dd61530e565b5b6001900381819060005260206000200160009055905550505050565b6000613405836111a2565b905081600660008573ffffffffffffffffffffffffffffffffffffffff1673ffffffffffffffffffffffffffffffffffffffff168152602001908152602001600020600083815260200190815260200160002081905550806007600084815260200190815260200160002081905550505050565b600073ffffffffffffffffffffffffffffffffffffffff168273ffffffffffffffffffffffffffffffffffffffff16036134e8576040517f08c379a00000000000000000000000000000000000000000000000000000000081526004016134df90615389565b60405180910390fd5b6134f1816123cd565b15613531576040517f08c379a0000000000000000000000000000000000000000000000000000000008152600401613528906153f5565b60405180910390fd5b61353d60008383612d27565b6001600360008473ffffffffffffffffffffffffffffffffffffffff1673ffffffffffffffffffffffffffffffffffffffff168152602001908152602001600020600082825461358d9190615047565b92505081905550816002600083815260200190815260200160002060006101000a81548173ffffffffffffffffffffffffffffffffffffffff021916908373ffffffffffffffffffffffffffffffffffffffff160217905550808273ffffffffffffffffffffffffffffffffffffffff16600073ffffffffffffffffffffffffffffffffffffffff167fddf252ad1be2c89b69c2b068fc378daa952ba7f163c4a11628f55a4df523b3ef60405160405180910390a45050565b6000808273ffffffffffffffffffffffffffffffffffffffff163b119050919050565b6040518060e0016040528060008152602001600073ffffffffffffffffffffffffffffffffffffffff16815260200160008152602001606081526020016060815260200160608152602001600081525090565b6000604051905090565b600080fd5b600080fd5b60007fffffffff0000000000000000000000000000000000000000000000000000000082169050919050565b613705816136d0565b811461371057600080fd5b50565b600081359050613722816136fc565b92915050565b60006020828403121561373e5761373d6136c6565b5b600061374c84828501613713565b91505092915050565b60008115159050919050565b61376a81613755565b82525050565b60006020820190506137856000830184613761565b92915050565b6000819050919050565b61379e8161378b565b82525050565b60006020820190506137b96000830184613795565b92915050565b600081519050919050565b600082825260208201905092915050565b60005b838110156137f95780820151818401526020810190506137de565b60008484015250505050565b6000601f19601f8301169050919050565b6000613821826137bf565b61382b81856137ca565b935061383b8185602086016137db565b61384481613805565b840191505092915050565b600060208201905081810360008301526138698184613816565b905092915050565b61387a8161378b565b811461388557600080fd5b50565b60008135905061389781613871565b92915050565b6000602082840312156138b3576138b26136c6565b5b60006138c184828501613888565b91505092915050565b600073ffffffffffffffffffffffffffffffffffffffff82169050919050565b60006138f5826138ca565b9050919050565b613905816138ea565b82525050565b600060208201905061392060008301846138fc565b92915050565b61392f816138ea565b811461393a57600080fd5b50565b60008135905061394c81613926565b92915050565b60008060408385031215613969576139686136c6565b5b60006139778582860161393d565b925050602061398885828601613888565b9150509250929050565b6000806000606084860312156139ab576139aa6136c6565b5b60006139b98682870161393d565b93505060206139ca8682870161393d565b92505060406139db86828701613888565b9150509250925092565b600081519050919050565b600082825260208201905092915050565b6000819050602082019050919050565b613a1a8161378b565b82525050565b613a29816138ea565b82525050565b600082825260208201905092915050565b6000613a4b826137bf565b613a558185613a2f565b9350613a658185602086016137db565b613a6e81613805565b840191505092915050565b600060e083016000830151613a916000860182613a11565b506020830151613aa46020860182613a20565b506040830151613ab76040860182613a11565b5060608301518482036060860152613acf8282613a40565b91505060808301518482036080860152613ae98282613a40565b91505060a083015184820360a0860152613b038282613a40565b91505060c0830151613b1860c0860182613a11565b508091505092915050565b6000613b2f8383613a79565b905092915050565b6000602082019050919050565b6000613b4f826139e5565b613b5981856139f0565b935083602082028501613b6b85613a01565b8060005b85811015613ba75784840389528151613b888582613b23565b9450613b9383613b37565b925060208a01995050600181019050613b6f565b50829750879550505050505092915050565b60006020820190508181036000830152613bd38184613b44565b905092915050565b600060e083016000830151613bf36000860182613a11565b506020830151613c066020860182613a20565b506040830151613c196040860182613a11565b5060608301518482036060860152613c318282613a40565b91505060808301518482036080860152613c4b8282613a40565b91505060a083015184820360a0860152613c658282613a40565b91505060c0830151613c7a60c0860182613a11565b508091505092915050565b60006020820190508181036000830152613c9f8184613bdb565b905092915050565b600060208284031215613cbd57613cbc6136c6565b5b6000613ccb8482850161393d565b91505092915050565b600080fd5b600080fd5b7f4e487b7100000000000000000000000000000000000000000000000000000000600052604160045260246000fd5b613d1682613805565b810181811067ffffffffffffffff82111715613d3557613d34613cde565b5b80604052505050565b6000613d486136bc565b9050613d548282613d0d565b919050565b600067ffffffffffffffff821115613d7457613d73613cde565b5b613d7d82613805565b9050602081019050919050565b82818337600083830152505050565b6000613dac613da784613d59565b613d3e565b905082815260208101848484011115613dc857613dc7613cd9565b5b613dd3848285613d8a565b509392505050565b600082601f830112613df057613def613cd4565b5b8135613e00848260208601613d99565b91505092915050565b60008060008060808587031215613e2357613e226136c6565b5b600085013567ffffffffffffffff811115613e4157613e406136cb565b5b613e4d87828801613ddb565b945050602085013567ffffffffffffffff811115613e6e57613e6d6136cb565b5b613e7a87828801613ddb565b935050604085013567ffffffffffffffff811115613e9b57613e9a6136cb565b5b613ea787828801613ddb565b9250506060613eb887828801613888565b91505092959194509250565b613ecd81613755565b8114613ed857600080fd5b50565b600081359050613eea81613ec4565b92915050565b60008060408385031215613f0757613f066136c6565b5b6000613f158582860161393d565b9250506020613f2685828601613edb565b9150509250929050565b60008060408385031215613f4757613f466136c6565b5b6000613f5585828601613888565b9250506020613f6685828601613888565b9150509250929050565b600067ffffffffffffffff821115613f8b57613f8a613cde565b5b613f9482613805565b9050602081019050919050565b6000613fb4613faf84613f70565b613d3e565b905082815260208101848484011115613fd057613fcf613cd9565b5b613fdb848285613d8a565b509392505050565b600082601f830112613ff857613ff7613cd4565b5b8135614008848260208601613fa1565b91505092915050565b6000806000806080858703121561402b5761402a6136c6565b5b60006140398782880161393d565b945050602061404a8782880161393d565b935050604061405b87828801613888565b925050606085013567ffffffffffffffff81111561407c5761407b6136cb565b5b61408887828801613fe3565b91505092959194509250565b600080604083850312156140ab576140aa6136c6565b5b60006140b98582860161393d565b92505060206140ca8582860161393d565b9150509250929050565b7f4e487b7100000000000000000000000000000000000000000000000000000000600052602260045260246000fd5b6000600282049050600182168061411b57607f821691505b60208210810361412e5761412d6140d4565b5b50919050565b7f4552433732313a20617070726f76656420717565727920666f72206e6f6e657860008201527f697374656e7420746f6b656e0000000000000000000000000000000000000000602082015250565b6000614190602c836137ca565b915061419b82614134565b604082019050919050565b600060208201905081810360008301526141bf81614183565b9050919050565b7f4552433732313a20617070726f76616c20746f2063757272656e74206f776e6560008201527f7200000000000000000000000000000000000000000000000000000000000000602082015250565b60006142226021836137ca565b915061422d826141c6565b604082019050919050565b6000602082019050818103600083015261425181614215565b9050919050565b7f4552433732313a20617070726f76652063616c6c6572206973206e6f74206f7760008201527f6e6572206e6f7220617070726f76656420666f7220616c6c0000000000000000602082015250565b60006142b46038836137ca565b91506142bf82614258565b604082019050919050565b600060208201905081810360008301526142e3816142a7565b9050919050565b7f4552433732313a207472616e736665722063616c6c6572206973206e6f74206f60008201527f776e6572206e6f7220617070726f766564000000000000000000000000000000602082015250565b60006143466031836137ca565b9150614351826142ea565b604082019050919050565b6000602082019050818103600083015261437581614339565b9050919050565b7f455243373231456e756d657261626c653a206f776e657220696e646578206f7560008201527f74206f6620626f756e6473000000000000000000000000000000000000000000602082015250565b60006143d8602b836137ca565b91506143e38261437c565b604082019050919050565b60006020820190508181036000830152614407816143cb565b9050919050565b7f455243373231456e756d657261626c653a20676c6f62616c20696e646578206f60008201527f7574206f6620626f756e64730000000000000000000000000000000000000000602082015250565b600061446a602c836137ca565b91506144758261440e565b604082019050919050565b600060208201905081810360008301526144998161445d565b9050919050565b7f4e487b7100000000000000000000000000000000000000000000000000000000600052603260045260246000fd5b7f4e487b7100000000000000000000000000000000000000000000000000000000600052601160045260246000fd5b60006145098261378b565b91506145148361378b565b925082820390508181111561452c5761452b6144cf565b5b92915050565b7f4552433732313a206f776e657220717565727920666f72206e6f6e657869737460008201527f656e7420746f6b656e0000000000000000000000000000000000000000000000602082015250565b600061458e6029836137ca565b915061459982614532565b604082019050919050565b600060208201905081810360008301526145bd81614581565b9050919050565b7f4552433732313a2062616c616e636520717565727920666f7220746865207a6560008201527f726f206164647265737300000000000000000000000000000000000000000000602082015250565b6000614620602a836137ca565b915061462b826145c4565b604082019050919050565b6000602082019050818103600083015261464f81614613565b9050919050565b7f457468657220746f6f206c6f7720666f72206d696e74696e6721000000000000600082015250565b600061468c601a836137ca565b915061469782614656565b602082019050919050565b600060208201905081810360008301526146bb8161467f565b9050919050565b600081905092915050565b60006146d8826137bf565b6146e281856146c2565b93506146f28185602086016137db565b80840191505092915050565b600061470a82846146cd565b915081905092915050565b7f546869732070726f6475637420697320616c7265616479206d696e7465642100600082015250565b600061474b601f836137ca565b915061475682614715565b602082019050919050565b6000602082019050818103600083015261477a8161473e565b9050919050565b600061478c8261378b565b91506147978361378b565b92508282026147a58161378b565b915082820484148315176147bc576147bb6144cf565b5b5092915050565b7f4e487b7100000000000000000000000000000000000000000000000000000000600052601260045260246000fd5b60006147fd8261378b565b91506148088361378b565b925082614818576148176147c3565b5b828204905092915050565b600061482e8261378b565b91507fffffffffffffffffffffffffffffffffffffffffffffffffffffffffffffffff82036148605761485f6144cf565b5b600182019050919050565b60008190508160005260206000209050919050565b60006020601f8301049050919050565b600082821b905092915050565b6000600883026148cd7fffffffffffffffffffffffffffffffffffffffffffffffffffffffffffffffff82614890565b6148d78683614890565b95508019841693508086168417925050509392505050565b6000819050919050565b600061491461490f61490a8461378b565b6148ef565b61378b565b9050919050565b6000819050919050565b61492e836148f9565b61494261493a8261491b565b84845461489d565b825550505050565b600090565b61495761494a565b614962818484614925565b505050565b5b818110156149865761497b60008261494f565b600181019050614968565b5050565b601f8211156149cb5761499c8161486b565b6149a584614880565b810160208510156149b4578190505b6149c86149c085614880565b830182614967565b50505b505050565b600082821c905092915050565b60006149ee600019846008026149d0565b1980831691505092915050565b6000614a0783836149dd565b9150826002028217905092915050565b614a20826137bf565b67ffffffffffffffff811115614a3957614a38613cde565b5b614a438254614103565b614a4e82828561498a565b600060209050601f831160018114614a815760008415614a6f578287015190505b614a7985826149fb565b865550614ae1565b601f198416614a8f8661486b565b60005b82811015614ab757848901518255600182019150602085019450602081019050614a92565b86831015614ad45784890151614ad0601f8916826149dd565b8355505b6001600288020188555050505b505050505050565b6000608082019050614afe6000830187613795565b614b0b6020830186613795565b8181036040830152614b1d8185613816565b9050614b2c6060830184613795565b95945050505050565b7f457468657220746f6f206c6f7720666f72207075726368617365210000000000600082015250565b6000614b6b601b836137ca565b9150614b7682614b35565b602082019050919050565b60006020820190508181036000830152614b9a81614b5e565b9050919050565b7f4f7065726174696f6e204e6f7420416c6c6f7765642100000000000000000000600082015250565b6000614bd76016836137ca565b9150614be282614ba1565b602082019050919050565b60006020820190508181036000830152614c0681614bca565b9050919050565b60008154614c1a81614103565b614c2481866137ca565b94506001821660008114614c3f5760018114614c5557614c88565b60ff198316865281151560200286019350614c88565b614c5e8561486b565b60005b83811015614c8057815481890152600182019150602081019050614c61565b808801955050505b50505092915050565b6000608082019050614ca66000830187613795565b614cb36020830186613795565b8181036040830152614cc58185614c0d565b9050614cd46060830184613795565b95945050505050565b7f457468657220746f6f206c6f7721000000000000000000000000000000000000600082015250565b6000614d13600e836137ca565b9150614d1e82614cdd565b602082019050919050565b60006020820190508181036000830152614d4281614d06565b9050919050565b7f4552433732314d657461646174613a2055524920717565727920666f72206e6f60008201527f6e6578697374656e7420746f6b656e0000000000000000000000000000000000602082015250565b6000614da5602f836137ca565b9150614db082614d49565b604082019050919050565b60006020820190508181036000830152614dd481614d98565b9050919050565b6000614de782856146cd565b9150614df382846146cd565b91508190509392505050565b7f4f776e61626c653a206e6577206f776e657220697320746865207a65726f206160008201527f6464726573730000000000000000000000000000000000000000000000000000602082015250565b6000614e5b6026836137ca565b9150614e6682614dff565b604082019050919050565b60006020820190508181036000830152614e8a81614e4e565b9050919050565b7f4552433732313a206f70657261746f7220717565727920666f72206e6f6e657860008201527f697374656e7420746f6b656e0000000000000000000000000000000000000000602082015250565b6000614eed602c836137ca565b9150614ef882614e91565b604082019050919050565b60006020820190508181036000830152614f1c81614ee0565b9050919050565b7f4552433732313a207472616e73666572206f6620746f6b656e2074686174206960008201527f73206e6f74206f776e0000000000000000000000000000000000000000000000602082015250565b6000614f7f6029836137ca565b9150614f8a82614f23565b604082019050919050565b60006020820190508181036000830152614fae81614f72565b9050919050565b7f4552433732313a207472616e7366657220746f20746865207a65726f2061646460008201527f7265737300000000000000000000000000000000000000000000000000000000602082015250565b60006150116024836137ca565b915061501c82614fb5565b604082019050919050565b6000602082019050818103600083015261504081615004565b9050919050565b60006150528261378b565b915061505d8361378b565b9250828201905080821115615075576150746144cf565b5b92915050565b7f4f776e61626c653a2063616c6c6572206973206e6f7420746865206f776e6572600082015250565b60006150b16020836137ca565b91506150bc8261507b565b602082019050919050565b600060208201905081810360008301526150e0816150a4565b9050919050565b600081905092915050565b50565b60006151026000836150e7565b915061510d826150f2565b600082019050919050565b6000615123826150f5565b9150819050919050565b7f4552433732313a20617070726f766520746f2063616c6c657200000000000000600082015250565b60006151636019836137ca565b915061516e8261512d565b602082019050919050565b6000602082019050818103600083015261519281615156565b9050919050565b7f4552433732313a207472616e7366657220746f206e6f6e20455243373231526560008201527f63656976657220696d706c656d656e7465720000000000000000000000000000602082015250565b60006151f56032836137ca565b915061520082615199565b604082019050919050565b60006020820190508181036000830152615224816151e8565b9050919050565b600081519050919050565b600082825260208201905092915050565b60006152528261522b565b61525c8185615236565b935061526c8185602086016137db565b61527581613805565b840191505092915050565b600060808201905061529560008301876138fc565b6152a260208301866138fc565b6152af6040830185613795565b81810360608301526152c18184615247565b905095945050505050565b6000815190506152db816136fc565b92915050565b6000602082840312156152f7576152f66136c6565b5b6000615305848285016152cc565b91505092915050565b7f4e487b7100000000000000000000000000000000000000000000000000000000600052603160045260246000fd5b7f4552433732313a206d696e7420746f20746865207a65726f2061646472657373600082015250565b60006153736020836137ca565b915061537e8261533d565b602082019050919050565b600060208201905081810360008301526153a281615366565b9050919050565b7f4552433732313a20746f6b656e20616c7265616479206d696e74656400000000600082015250565b60006153df601c836137ca565b91506153ea826153a9565b602082019050919050565b6000602082019050818103600083015261540e816153d2565b905091905056fea2646970667358221220ab5c2528ac197adf0fbc6f062a0c4dd5743cb1f12353071ba2d3543c80962c1464736f6c63430008130033",
  "immutableReferences": {},
  "source": "// SPDX-License-Identifier: MIT\r\npragma solidity >=0.7.0 <0.9.0;\r\n\r\nimport \"./ERC721.sol\";\r\nimport \"./ERC721Enumerable.sol\";\r\nimport \"@openzeppelin/contracts/access/Ownable.sol\";\r\n\r\ncontract AsifNFT is ERC721Enumerable, Ownable {\r\n    using Strings for uint256;\r\n    mapping(string => uint8) existingURIs;\r\n    mapping(uint256 => address) public holderOf;\r\n\r\n    address public artist;\r\n    uint256 public royalityFee;\r\n    uint256 public supply = 0;\r\n    uint256 public totalTx = 0;\r\n    uint256 public cost = 0.01 ether;\r\n\r\n    event Sale(\r\n        uint256 id,\r\n        address indexed owner,\r\n        uint256 cost,\r\n        string metadataURI,\r\n        uint256 timestamp\r\n    );\r\n\r\n    struct TransactionStruct {\r\n        uint256 id;\r\n        address owner;\r\n        uint256 cost;\r\n        string title;\r\n        string description;\r\n        string metadataURI;\r\n        uint256 timestamp;\r\n    }\r\n\r\n    TransactionStruct[] transactions;\r\n    TransactionStruct[] minted;\r\n\r\n    constructor(\r\n        string memory _name,\r\n        string memory _symbol,\r\n        uint256 _royalityFee,\r\n        address _artist\r\n    ) ERC721(_name, _symbol) {\r\n        royalityFee = _royalityFee;\r\n        artist = _artist;\r\n    }\r\n\r\n    function payToMint(\r\n        string memory title,\r\n        string memory description,\r\n        string memory metadataURI,\r\n        uint256 salesPrice\r\n    ) external payable {\r\n        require(msg.value >= cost, \"Ether too low for minting!\");\r\n        require(existingURIs[metadataURI] == 0, \"This product is already minted!\");\r\n\r\n        uint256 royality = (msg.value * royalityFee) / 100;\r\n        payTo(artist, royality);\r\n        payTo(owner(), (msg.value - royality));\r\n\r\n        supply++;\r\n\r\n        minted.push(\r\n            TransactionStruct(\r\n                supply,\r\n                msg.sender,\r\n                salesPrice,\r\n                title,\r\n                description,\r\n                metadataURI,\r\n                block.timestamp\r\n            )\r\n        );\r\n\r\n        emit Sale(supply, msg.sender, msg.value, metadataURI, block.timestamp);\r\n\r\n        _safeMint(msg.sender, supply);\r\n        existingURIs[metadataURI] = 1;\r\n        holderOf[supply] = msg.sender;\r\n    }\r\n\r\n    function payToBuy(uint256 id) external payable {\r\n        require(\r\n            msg.value >= minted[id - 1].cost,\r\n            \"Ether too low for purchase!\"\r\n        );\r\n        require(msg.sender != minted[id - 1].owner, \"Operation Not Allowed!\");\r\n\r\n        uint256 royality = (msg.value * royalityFee) / 100;\r\n        payTo(artist, royality);\r\n        payTo(minted[id - 1].owner, (msg.value - royality));\r\n\r\n        totalTx++;\r\n\r\n        transactions.push(\r\n            TransactionStruct(\r\n                totalTx,\r\n                msg.sender,\r\n                msg.value,\r\n                minted[id - 1].title,\r\n                minted[id - 1].description,\r\n                minted[id - 1].metadataURI,\r\n                block.timestamp\r\n            )\r\n        );\r\n\r\n        emit Sale(\r\n            totalTx,\r\n            msg.sender,\r\n            msg.value,\r\n            minted[id - 1].metadataURI,\r\n            block.timestamp\r\n        );\r\n\r\n        minted[id - 1].owner = msg.sender;\r\n    }\r\n\r\n    function changePrice(uint256 id, uint256 newPrice) external returns (bool) {\r\n        require(newPrice > 0 ether, \"Ether too low!\");\r\n        require(msg.sender == minted[id - 1].owner, \"Operation Not Allowed!\");\r\n\r\n        minted[id - 1].cost = newPrice;\r\n        return true;\r\n    }\r\n\r\n    function payTo(address to, uint256 amount) internal {\r\n        (bool success, ) = payable(to).call{value: amount}(\"\");\r\n        require(success);\r\n    }\r\n\r\n    function getAllNFTs() external view returns (TransactionStruct[] memory) {\r\n        return minted;\r\n    }\r\n\r\n    function getNFT(\r\n        uint256 id\r\n    ) external view returns (TransactionStruct memory) {\r\n        return minted[id - 1];\r\n    }\r\n\r\n    function getAllTransactions()\r\n        external\r\n        view\r\n        returns (TransactionStruct[] memory)\r\n    {\r\n        return transactions;\r\n    }\r\n}\r\n",
  "sourcePath": "C:\\Users\\ahmed nabi\\NFT_Marketplace\\src\\contracts\\AsifNFT.sol",
  "compiler": {
    "name": "solc",
    "version": "0.8.19+commit.7dd6d404.Emscripten.clang"
  },
  "schemaVersion": "3.4.16",
  "updatedAt": "2024-03-31T10:54:35.586Z",
  "networkType": "ethereum",
  "devdoc": {
    "events": {
      "Approval(address,address,uint256)": {
        "details": "Emitted when `owner` enables `approved` to manage the `tokenId` token."
      },
      "ApprovalForAll(address,address,bool)": {
        "details": "Emitted when `owner` enables or disables (`approved`) `operator` to manage all of its assets."
      },
      "Transfer(address,address,uint256)": {
        "details": "Emitted when `tokenId` token is transferred from `from` to `to`."
      }
    },
    "kind": "dev",
    "methods": {
      "approve(address,uint256)": {
        "details": "See {IERC721-approve}."
      },
      "balanceOf(address)": {
        "details": "See {IERC721-balanceOf}."
      },
      "getApproved(uint256)": {
        "details": "See {IERC721-getApproved}."
      },
      "isApprovedForAll(address,address)": {
        "details": "See {IERC721-isApprovedForAll}."
      },
      "name()": {
        "details": "See {IERC721Metadata-name}."
      },
      "owner()": {
        "details": "Returns the address of the current owner."
      },
      "ownerOf(uint256)": {
        "details": "See {IERC721-ownerOf}."
      },
      "renounceOwnership()": {
        "details": "Leaves the contract without owner. It will not be possible to call `onlyOwner` functions. Can only be called by the current owner. NOTE: Renouncing ownership will leave the contract without an owner, thereby disabling any functionality that is only available to the owner."
      },
      "safeTransferFrom(address,address,uint256)": {
        "details": "See {IERC721-safeTransferFrom}."
      },
      "safeTransferFrom(address,address,uint256,bytes)": {
        "details": "See {IERC721-safeTransferFrom}."
      },
      "setApprovalForAll(address,bool)": {
        "details": "See {IERC721-setApprovalForAll}."
      },
      "supportsInterface(bytes4)": {
        "details": "See {IERC165-supportsInterface}."
      },
      "symbol()": {
        "details": "See {IERC721Metadata-symbol}."
      },
      "tokenByIndex(uint256)": {
        "details": "See {IERC721Enumerable-tokenByIndex}."
      },
      "tokenOfOwnerByIndex(address,uint256)": {
        "details": "See {IERC721Enumerable-tokenOfOwnerByIndex}."
      },
      "tokenURI(uint256)": {
        "details": "See {IERC721Metadata-tokenURI}."
      },
      "totalSupply()": {
        "details": "See {IERC721Enumerable-totalSupply}."
      },
      "transferFrom(address,address,uint256)": {
        "details": "See {IERC721-transferFrom}."
      },
      "transferOwnership(address)": {
        "details": "Transfers ownership of the contract to a new account (`newOwner`). Can only be called by the current owner."
      }
    },
    "version": 1
  },
  "userdoc": {
    "kind": "user",
    "methods": {},
    "version": 1
  }
}